:020000040000FA
:040400008231262AF5
:100408007E148231EC3020009D0082309C002E004A
:100418008C120130F1007108FA0720008E017A0869
:100428000339F100F201F135F20DF830710784005B
:100438008330723D850000088C0082313822823179
:100448007E1009008231282AF701F801F901FA0122
:100458002030840000308500123084310724823136
:100468007E1020008331EF2B0F3020008D000F30DD
:100478000D060319402A412A662A0D18442A452ADE
:100488004A2A0730F0007008F900AA2A8D184D2A68
:100498004E2A532A0830F0007008F900AA2A0D19CC
:1004A800562A572A5C2A0930F0007008F900AA2A4F
:1004B8008D195F2A602A652A0A30F0007008F90051
:1004C800AA2AAA2A07308D0007300D0603196D2ABB
:1004D8006E2A892A0D18712A722A772A0230F000AA
:1004E8007008F900AA2A8D187A2A7B2A802A0430F3
:1004F800F0007008F900AA2A0D19832A842A652AAF
:100508000630F0007008F900AA2A03308D00033085
:100518000D060319902A912A9D2A0D18942A952AC6
:10052800982AF901F90AAA2A0330F0007008F9009C
:10053800AA2A01308D000D030319A32AA42AA92A87
:100548000530F0007008F900AA2AF9012E082F04D6
:100558000319AF2AB02AB62A2E08FF3EAE00FF3094
:100568002F3DAF0079080319BA2ABB2AFE2A77085B
:1005780078040319C02AC12AC82A7708013EF7005F
:100588000030783DF800F02A77087804031DCD2A5A
:10059800CE2AF02A01302F025E3003192E02031CE6
:1005A800D62AD72AD92AB001B00A3008031DDD2A75
:1005B800DE2AF02A79081F3E860087010108013EDD
:1005C800F00079081F3E860087017008810090308E
:1005D800AE000130AF00C12A00307802C9300319DB
:1005E8007702031CF82AF92AFC2AB101B10A072B61
:1005F800B101072B770878040319032B042B062B6A
:10060800F701F801B00108007908031D0C2B0D2B28
:10061800162B7A0803392A3E860087010108200034
:100628008E00682B0A307906031D1B2B1C2B5B2BB5
:10063800E53084008330850000082000B5003508C7
:10064800AA000A30F3000030F40079081F3E860043
:1006580087010108B500B6013508F5003608F6002F
:100668008331702383317408850073088400E53072
:1006780084078330853D00082000B7003708AB00A9
:100688003008E53E840083300318013E85000008E9
:10069800B5003508AC003108E53E84008330031806
:1006A800013E85000008B5003508AD000D2B79081E
:1006B800E53E840083300318013E850000082000D1
:1006C800B5003508AA00252B7A0803392A3E86008A
:1006D800870101088E0008002000B401F61F752B61
:1006E800762B7D2BF509F609F50A0319F60AB401EC
:1006F800B40AF41F802B812B862BF309F409F30A23
:100708000319F40A7308740403198B2B8C2BB52B6B
:10071800B301B30A982B0130F335F40D890B902BF4
:100728000130B2003208B307F41F9B2B9C2B8F2B90
:1007380074087602031DA22B73087502031CA52BEF
:10074800A62BAA2B7308F5027408F63B0130F43681
:10075800F30C890BAB2B0130B302031DB42BB52B63
:100768009C2B34080319B92BBA2BBF2BF509F609B2
:10077800F50A0319F60A7608F4007508F30008006C
:100788008B170B130B142E009616D03020009E00EA
:1007980040309F00EC309D0082309C002E008C126F
:1007A80008003E00B8012000960191013E00C301F7
:1007B8002000970192013E00CE012000980193018C
:1007C8000800FC346034DA34F2346634B634BE34AB
:1007D800E034FE34F6348431002483318331082335
:1007E8008331F22B8231262AEE340034DD34003492
:1007F800BB340034773400348331D52384318331DA
:10080800C42384310800640080010131890B082C5D
:020818000034AA
:020000040001F9
:0A000E00EC1FFF37BF3FFE2FFE3F3F
:00000001FF
