:020000040000FA
:0404000082314C2ACF
:100408007E14823120008E010130FB070030FC3D54
:100418004D30F0000130F1007C08F3007B08F20059
:1004280082315722823171082000A1007008A00093
:1004380003307B05F90000307C05FA002B30790782
:10044800840083307A3D850000088C000A30F00073
:100458000030F10003307B05F90000307C05FA001C
:1004680020087907F20021087A3DF3008231B6228C
:100478008231710885007008840021308407833038
:10048800853D000820008E002E008C127E10090089
:1004980082314E2AFB01FC012000A001A1017E103F
:1004A80020008331092BF601F11F5B2A5C2A632A9D
:1004B800F009F109F00A0319F10AF601F60AF31F27
:1004C800662A672A702AF209F309F20A0319F30A5D
:1004D8000130F4007408F606F701F8017008710499
:1004E8000319772A782AA72AF501F50A842A013000
:1004F800F035F10D890B7C2A0130F4007408F507FA
:10050800F11F872A882A7B2A0130F735F80D890BD5
:10051800892A71087302031D932A70087202031C4A
:10052800962A972A9C2A7008F2027108F33B7714DE
:100538000130F136F00C890B9D2A0130F502031DBC
:10054800A62AA72A882A76080319AB2AAC2AB12A30
:10055800F709F809F70A0319F80A7808F100770883
:10056800F0000800F601F31FBA2ABB2AC22AF209D2
:10057800F309F20A0319F30AF601F60AF11FC52A6C
:10058800C62ACB2AF009F109F00A0319F10A700802
:1005980071040319D02AD12AFA2AF501F50ADD2AAD
:1005A8000130F035F10D890BD52A0130F4007408BB
:1005B800F507F11FE02AE12AD42A71087302031D06
:1005C800E72A70087202031CEA2AEB2AEF2A70084D
:1005D800F2027108F33B0130F136F00C890BF02A76
:1005E8000130F502031DF92AFA2AE12A76080319CF
:1005F800FE2AFF2A042BF209F309F20A0319F30A67
:100608007308F1007208F0000800200091019301BE
:100618003E00B801CE01FF3020008C008E010A3068
:100628009D009C01C9309E0045309F008B172E000D
:100638008C1296161E2B82314C2AFC346034DA3424
:10064800F2346634B634BE34E034FE34F634FE3464
:06065800FD34FB34F73411
:020000040001F9
:0A000E00EC1FFF37BF3FFE2FFE3F3F
:00000001FF
