:020000040000FA
:0400000080313328F0
:100008007E148031EC3020009D0082309C002E0050
:100018008C120130FC007C082000A5078E01250801
:1000280003393D3E840083300318013E85000008F3
:100038008C0025080339273E8600870101088E00B9
:1000480025080339031D29282A2831280130FC00F6
:100058007C08A6078031602080317E10090080313D
:1000680035280D30840082308500703086002130BC
:1000780087000030FF0080308331122380318331C4
:1000880041238031FD0033308400833085002730E0
:100098008600003087000030FF00053083311223CE
:1000A8008031A001A101A201A301A401A501A6011B
:1000B8007E1020008331382B0430200031060319CC
:1000C800662867280C2A26083206031D6C286D2826
:1000D8000C2AA601B11C712872285629311C7528D2
:1000E8007628FB2870308600213087000108F00050
:1000F8007008A70070308600213087004131010860
:10010800F0007008A8007030860021308700423166
:100118000108F0007008A9007030860021308700BF
:1001280043310108F0007008AA00F901BA287908DB
:10013800F000F1017430F2002130F300700872070A
:1001480086007108733D87000108F4007908703E45
:10015800F500F6012130F63D75088600760887001F
:10016800740881000130F0007008F9077D087902F1
:10017800031CBF28C0289B287D08F000F1016F30C0
:10018800F2002130F3007008720786007108733D91
:10019800870081017D08F000F1016E30F200213006
:1001A800F3007008720786007108733D87008101AB
:1001B8007D08F000F1016D30F2002130F300700885
:1001C800720786007108733D870081017D08F00081
:1001D800F1016C30F2002130F300700872078600DC
:1001E8007108733D870081010430FD02072A7030D1
:1001F8008600213087000108F0007008A7007030E1
:1002080086002130870041310108F0007008A800FD
:10021800703086002130870042310108F0007008F4
:10022800A900703086002130870043310108F000B2
:100238007008AA00FA013F297A08F000F10171302C
:10024800F2002130F3007008720786007108733DD0
:1002580087000108F4007A08703EF500F6012130A5
:10026800F63D75088600760887007408810001301D
:10027800F0007008FA077D087A02031C4429452912
:1002880020297D08F000F1016F30F2002130F300E1
:100298007008720786007108733D8700810101307C
:1002A800FD02072A23082B06031D5B295C295E290A
:1002B800A301A201311C61296229A4292208703EE8
:1002C800860087012130873D0108F0007008A700EB
:1002D8002208F000F1017130F2002130F3007008BB
:1002E800720786007108733D87000108F4007408DE
:1002F800A8002208F000F1017230F2002130F3006A
:100308007008720786007108733D87000108F400C1
:100318007408A9002208F000F1017330F2002130BE
:10032800F3007008720786007108733D87000108A2
:10033800F4007408AA000430F0007008A207072A25
:100348002308F0007008A200FB0123087B07F000D7
:10035800F101F10D2408FF3EF200FF3003180030D0
:10036800F3007308803AF4007108803A7402031DA0
:10037800BF29700872020318C229C329E529200081
:100388002408F000F1017B08F200F3012208703E16
:10039800F400F5012130F53D72087407F600730882
:1003A800753DF7007008760286007108773B870074
:1003B8000108F8007B08273E86008701780881003D
:1003C800FD297B08F000F10120002208703EF200B0
:1003D800F3012130F33D7008720786007108733D00
:1003E80087000108F4007B08273E8600870174080F
:1003F80081000130F0007008FB0704307B02031C09
:10040800062A072AA9290130F00070082000A3074E
:1004180008001C34FC34EE34FC341D34FC34EE3457
:10042800FC341D34FD34EE34FC341D34FD34EF341B
:10043800FC341D34FD34EF34FD34B6349E34B63408
:100448000034DA34FC34DA34FC34DA34FC34DA34A8
:10045800FC34FC34F7346034E034FC34F734603472
:10046800E0340234023402340234003400340034FC
:1004780000340034003400340034003400340034D4
:1004880000340034003400340034003400340034C4
:1004980000340034003400340034003400340034B4
:1004A80000340034003400340034003400340034A4
:1004B8000034003400340034003400340034003494
:1004C8000034003400340034003400340034003484
:1004D8000034003400340034003400340034003474
:1004E8000034003400340034003400340034003464
:1004F8000034003400340034003400340034003454
:100508000034003400340034003400340034003443
:1005180000342000B201B20AAF012F08293E84003E
:1005280083300318013E85000008AE002E08A000A5
:100538008231D022823101302000AE002E08AF0770
:100548000A302F02031CA92AAA2A912AB101A6015E
:10055800A301A2017D08AE002E08A4000800200017
:10056800AE01AF017030AC002130AD002E082C0771
:1005780086002F082D3D870081010130AE0700302D
:10058800AF3D00302F02803003192E02031CCD2A04
:10059800CE2AB62AFD0108007D08703E2000AC0076
:1005A800AD012130AD3D2C0886002D0887002008BC
:1005B80081000130AC002C08FD07A00108002000D4
:1005C800B201B20A0330B0003008B100A6017D08BC
:1005D800031DEF2AF02AEB2A8231B3228231080068
:1005E8008B170B130B142E009616D03020009E008C
:1005F80040309F00EC309D0082309C002E008C1211
:10060800080083311E2383318231F4228331823101
:10061800E322833182318D2283310800FE001200EB
:100628001E000130FE020030FF3B7F087E04031DE0
:10063800132B00343E00B8012000960191013E00C2
:10064800CE012000980193010800FC346034DA34AC
:10065800F2346634B634BE34E034FE34F634FF3453
:10066800FF34FF34FF340D34833105238331803167
:0C0678003328EE34DD34BB3477343434E6
:020000040001F9
:0A000E00EC1FFF37BF3FFE2FFE3F3F
:00000001FF
