:020000040000FA
:040000008031BE2865
:100008007E148031EC3020009D0082309C002E0050
:100018008C1220008E018C191228152820000C162D
:10002800172820000C120C191A281D2820008C15DE
:100038001F2820008C118C182228252820000C1538
:10004800272820000C110C182A282D2820008C1491
:100058002F2820008C100C1A3228352820000C1468
:10006800372820000C1000307D02C73003197C02AD
:1000780003183F28402845280130FC070030FD3D83
:100088007728FC01FD01FA01FB017A35703E8600F4
:1000980087010130810741310318810A7A35703EA2
:1000A8008600870116000A3AF8001600F804031DB6
:1000B8005E285F2866287A35703E86008701003002
:1000C800C03FC13F0130FA070030FB3D7B08803A52
:1000D800F80080307802031D732804307A02031C6C
:1000E80076287728492820000C187B287C2889281E
:1000F80071088500700884008435850DE93084070F
:100108008030853D00088E00BC288C188C288D28EE
:100118009A2873088500720884008435850DE930B3
:1001280084078030853D00088E00BC280C199D2866
:100138009E28AB2875088500740884008435850DD1
:10014800E93084078030853D00088E00BC288C1972
:10015800AE28AF28BC287708850076088400843547
:10016800850DE93084078030853D00088E00BC2865
:100178007E1009008031C028193084008130850044
:10018800703086000030870008308131302180319E
:10019800FC01FD017E10200081310E293E00B801CE
:1001A8002000960191013E00CE01200098019301A4
:1001B800233084008130850000088C00F1308400F1
:1001C8008030850000088E000800FC34003460345C
:1001D8000034DA340034F234003466340034B6348F
:1001E8000034BE340034E0340034FE340034F634D5
:1001F80000348B170B130B142E009616D0302000EA
:100208009E0040309F00EC309D0082309C002E0004
:100218008C120800FC01FD018131292181318131D5
:100228003621813113298031BE280034003401344D
:1002380000340234003403340034EE340034DD3446
:100248000034CC340034773400348031D22081310A
:100258008031FD2081310800FE0012001E00FE0BD7
:06026800312900340800FA
:020000040001F9
:0A000E00EC1FFF37BF3FFE2FFE3F3F
:00000001FF
