:020000040000FA
:0400000080314928DA
:100008007E148031EC3020009D0082309C002E0050
:100018008C120130F9007908F50720008E01750867
:100028000339F900FA01F935FA0D1F307907840010
:1000380081307A3D850000088C00750803392A3E16
:100048008600870101088E007508FE3E03390319F2
:100058002E282F28472880315E2080312000310843
:10006800FA003008F900F909FA0972087905FB0065
:1000780073087A05FC007B08F0047C08F104730817
:10008800B1007208B0007E10090080314B28F001E1
:10009800F101F201F301F401F501F60120308400C9
:1000A80000308500123081312E2180317E102000F1
:1000B80081311629F201F3010F3020008D000F3035
:1000C8000D060319682869288E280D186C286D28D4
:1000D80072280730F7007708F600D2288D1875289F
:1000E80076287B280830F7007708F600D2280D1903
:1000F8007E287F2884280930F7007708F600D22860
:100108008D19872888288D280A30F7007708F60087
:10011800D228D22807308D0007300D0603199528FC
:100128009628B1280D1899289A289F280230F70098
:100138007708F600D2288D18A228A328A82804300A
:10014800F7007708F600D2280D19AB28AC288D28BF
:100158000630F7007708F600D22803308D00033008
:100168000D060319B828B928C5280D18BC28BD28BC
:10017800C028F601F60AD2280330F7007708F600FF
:10018800D22801308D000D030319CB28CC28D128A3
:100198000530F7007708F600D228F6010130F7009D
:1001A8000030F800760ADA28F735F80D890BD828D8
:1001B8007708F2007808F30008008B170B130B146C
:1001C8002E009616D03020009E0040309F00EC3064
:1001D8009D0082309C002E008C1208003E00B80161
:1001E8002000960191013E00C30120009701920171
:1001F8003E00CE012000980193010800FC346034D1
:10020800DA34F2346634B634BE34E034FE34F634CC
:1002180070082000B2003208AB007108B200320842
:10022800AA00080081312721813181310C218131D7
:10023800192980314928EE340034DD340034BB34C8
:100248000034773400348031F22081318031E1206C
:1002580081310800640080010131890B2F290034A5
:020000040001F9
:0A000E00EC1FFF37BF3FFE2FFE3F3F
:00000001FF
