:020000040000FA
:080400008231022A8731FD2F31
:100E8A002000910193013E00B801CE01FF302000FD
:100E9A008C008E0108006430F0000030F100FF3051
:100EAA00F007FF30F13D700A031D5F2F710A031D21
:100EBA005F2F602F542F0800873145278731FF3075
:100ECA0020008C00812F06308400883085000008BD
:100EDA008E00073084008830850000088E000830B4
:100EEA0084008830850000088E000930840088302C
:100EFA00850000088E00972F0C08F200F301730892
:100F0A00003A0319892F802F7208F73A03197A2FAA
:100F1A000C3A0319742F063A03196E2F033A031970
:100F2A00682F802FF7308C00873150278731B02FF8
:100F3A00013084008830850000088E000330840068
:100F4A008830850000088E000530840088308500CE
:100F5A0000088E00C42F20000C08F200F301730869
:100F6A00003A0319B92FAF2F7208F33A0319A92FC0
:100F7A00063A0319A32F033A03199D2FAF2FFB300B
:100F8A008C00873150278731D72F00308400883072
:100F9A00850000088E000230840088308500000831
:100FAA008E00E82F20000C08F200F3017308003AC3
:100FBA000319E02FD62F7208F93A0319D02F033AF2
:100FCA000319CA2FD62FFD308C008731502787315D
:100FDA00FC3020000C06031DF32FF42F642F04307D
:100FEA0084008830850000088E00642F8231022A2E
:100FFA0020008731612F6034DA34F2346634B63433
:10100A00BE34E034FE34F634FC34FE34FD34FB34B2
:02101A00F734A9
:020000040001F9
:0A000E00EC1FFF37BF3FFE2FFE3F3F
:00000001FF
