:020000040000FA
:040400008231AF2A6C
:100408007E148231FF3020008C00FE300C06031D64
:100418000E2A0F2A162AE030840082308500000850
:100428008E00AB2AFD300C06031D1B2A1C2A232A2A
:10043800E13084008230850000088E00AB2AFB3052
:100448000C06031D282A292A302AE230840082302B
:10045800850000088E00AB2AF7300C06031D352AEC
:10046800362A3D2AE33084008230850000088E0059
:10047800AB2A023070067104031D432A442A6F2AEE
:10048800F7308C00F6300C06031D4B2A4C2A522AF2
:10049800DB3084008230850000088E00F5300C06C1
:1004A800031D572A582A5E2ADD30840082308500D1
:1004B80000088E00F3300C06031D632A642A6A2A9A
:1004C800DF3084008230850000088E000130F0079C
:1004D8000030F13DAB2A033070067104031D752A04
:1004E800762A912AFB308C00FA300C06031D7D2AEF
:1004F8007E2A842ADA3084008230850000088E0043
:10050800F9300C06031D892A8A2A6A2ADC308400FD
:100518008230850000088E006A2A04307006710453
:10052800031D972A982AAB2AFD308C00FC300C0654
:10053800031D9F2AA02AA62ADE3084008230850067
:1005480000088E000230F0000030F100AB2A2E00C7
:100558008C127E1009008231B12A7E10200082316F
:10056800B52A0230F0000030F1008231C222823117
:100578008231CF228231BF2A8231AF2A0130200056
:100588009D009C01C9309E0045309F008B172E00AE
:100598008C12961608002000910193013E00B801C4
:1005A800CE01FF3020008C008E0108006034DA3460
:1005B800F2346634B634BE34E034FE34F634FC34F7
:0805C800FE34FD34FB34F7346E
:020000040001F9
:0A000E00EC1FFF37BF3FFE2FFE3F3F
:00000001FF
