:020000040000FA
:0404000082318A2A91
:100408007E1482312E008C12F73020009D00F330CC
:100418009C007D08031D112A122A372A8E01FE30FE
:1004280084008430850000088C000A30F000003019
:10043800F1007C08F900FA017908F2007A08F30063
:100448008431162482317108850070088400EB30ED
:1004580084078430853D000820008E000130F900B3
:100468007908FD07882A7D03031D3B2A3C2A5D2A5B
:100478008E01FD3084008430850000088C000A302D
:10048800F0000030F1007C08F900FA017908F20068
:100498007A08F30084317524823171088500700868
:1004A8008400EB3084078430853D000820008E00EE
:1004B800322A02307D06031D622A632A6C2A8E01C5
:1004C800FC3084008430850000088C008E01322ABC
:1004D80003307D02031C712A722A882A8E01FB30A0
:1004E80084008430850000088C008331A023823189
:1004F8007B08EB3E840084300318013E8500000829
:1005080020008E00FD01882A7E10090082318C2A85
:10051800FB01FC01FD012000A001A101A201A30132
:10052800A401A501A601A701A801A901AA01AB017F
:100538007E1020008431F52C00340134003400345E
:100548000034003400340034003400340034003403
:1005580000340034003400340034003400340034F3
:1005680000340034003400340034003400340034E3
:1005780000340034003400340034003400340034D3
:1005880000340034003400340034003400340034C3
:1005980000340034003400340034003400340034B3
:1005A80000340034003400340034003400340034A3
:1005B8000034003400340034003400340034003493
:1005C8000034003400340034003400340034003483
:1005D8000034003400340034003400340034003473
:1005E8000034003400340034003400340034003463
:1005F8000034003400340034003400340034003453
:100608000034003400340034003400340034003442
:100618000034003400340034003400340034003432
:100628000034003400340034003400340034003422
:100638000034003400340034003400340034003412
:100648000034003400340034003400340034003402
:1006580000340034003400340034003400340034F2
:1006680000340034003400340034003400340034E2
:1006780000340034003400340034003400340034D2
:1006880000340034003400340034003400340034C2
:1006980000340034003400340034003400340034B2
:1006A80000340034003400340034003400340034A2
:1006B8000034003400340034003400340034003492
:1006C8000034003400340034003400340034003482
:1006D8000034003400340034003400340034003472
:1006E8000034003400340034003400340034003462
:1006F8000034003400340034003400340034003452
:100708000034003400340034003400340034003441
:100718000034003400340034003400340034003431
:100728000034003400340034003400340034003421
:10073800003400340034003401302000A8070030B1
:10074800A93D0F308D000D18AA2BAB2BBB2B073002
:10075800F0007008FB00280829040319B42BB52BF6
:10076800152C0130F0007008FC07152C152C8D187D
:10077800BE2BBF2BC42B0830F0007008FB00152CD3
:100788000D19C72BC82BCD2B0930F0007008FB00C2
:10079800152C8D19D02BD12BD32BFB01152C073001
:1007A8008D0007300D060319DA2BDB2BF42B0D18FF
:1007B800DE2BDF2BE32B0230F0007008FB008D18D6
:1007C800E62BE72BEB2B0430F0007008FB000D192B
:1007D800EE2BEF2B152C0630F0007008FB00152CC3
:1007E8000B308D000B300D060319FB2BFC2B0B2C4B
:1007F8000D18FF2B002C022CFB01FB0A8D18052C71
:10080800062CBA2B0330F0007008FB00152C0D30B5
:100818008D000D18102C112CBA2B0530F000700823
:10082800FB000800F601F11F1A2C1B2C222CF009E2
:10083800F109F00A0319F10AF601F60AF31F252C4B
:10084800262C2F2CF209F309F20A0319F30A0130B6
:10085800F4007408F606F701F8017008710403192A
:10086800362C372C662CF501F50A432C0130F0356F
:10087800F10D890B3B2C0130F4007408F507F11FCA
:10088800462C472C3A2C0130F735F80D890B482CAB
:1008980071087302031D522C70087202031C552C38
:1008A800562C5B2C7008F2027108F33B7714013068
:1008B800F136F00C890B5C2C0130F502031D652C18
:1008C800662C472C760803196A2C6B2C702CF709B8
:1008D800F809F70A0319F80A7808F1007708F00010
:1008E8000800F601F31F792C7A2C812CF209F30900
:1008F800F20A0319F30AF601F60AF11F842C852C73
:100908008A2CF009F109F00A0319F10A7008710438
:1009180003198F2C902CB92CF501F50A9C2C013069
:10092800F035F10D890B942C0130F4007408F507AB
:10093800F11F9F2CA02C932C71087302031DA62C69
:1009480070087202031CA92CAA2CAE2C7008F202A3
:100958007108F33B0130F136F00C890BAF2C0130F4
:10096800F502031DB82CB92CA02C76080319BD2C50
:10097800BE2CC32CF209F309F20A0319F30A73080F
:10098800F1007208F000080020008C0191013E007F
:10099800B8012000970192013E00C30120008E019A
:1009A80093013E00CE01403020009F0090309E0011
:1009B800F7309D00F3309C008B172E009616EB3015
:1009C800840084308500000820008E000800FC3474
:1009D8006034DA34F2346634B634BE34E034FE348B
:1009E800F6348431C8248431F82C82318A2AE034E0
:0609F800D034B03470346D
:020000040001F9
:0A000E00EC1FFF37BF3FFE2FFE3F3F
:00000001FF
