:020000040000FA
:040400008231402ADB
:100408007E148231EC3020009D0082309C002E004A
:100418008C120130FC007C082000BF078E013F08C9
:100428000339CC3E840087300318013E850000085C
:100438008C003F0803394E3E8600870101088E0074
:100448003F080339031D292A2A2A312A0130FC00D2
:100458007C08C007823171228231033020003F05B9
:10046800FC0002307C06031D3A2A3B2A3E2A8631CC
:10047800DC2682317E1009008231422A3530840020
:100488008530850070308600213087000030FF00FD
:10049800803087319C2782318731D0278231FD0017
:1004A800C7308400873085004E30860000308700D2
:1004B8000030FF00053087319C27823120308400CE
:1004C800003085002230FE000030FF008731A82769
:1004D80082317E1020008731BE2F04302000530661
:1004E8000319772A782A1D2C40085406031D7D2AF3
:1004F8007E2A1D2CC001D31C822A832A672B531CF9
:10050800862A872A0C2B7030860021308700010844
:10051800F0007008CE00703086002130870041312D
:100528000108F0007008CF00703086002130870085
:1005380042310108F0007008D00070308600213088
:10054800870043310108F0007008D100F901CB2A77
:100558007908F000F1017430F2002130F3007008DE
:10056800720786007108733D87000108F400790856
:10057800703EF500F6012130F63D750886007608D4
:100588008700740881000130F0007008F9077D08C1
:100598007902031CD02AD12AAC2A7D08F000F10187
:1005A8006F30F2002130F30070087207860071087E
:1005B800733D870081017D08F000F1016E30F20083
:1005C8002130F3007008720786007108733D8700B8
:1005D80081017D08F000F1016D30F2002130F30057
:1005E8007008720786007108733D870081017D08D5
:1005F800F000F1016C30F2002130F300700872074E
:1006080086007108733D870081010430FD02182CB3
:1006180070308600213087000108F0007008CE0095
:10062800703086002130870041310108F0007008E1
:10063800CF00703086002130870042310108F00079
:100648007008D000703086002130870043310108DF
:10065800F0007008D100FA01502B7A08F000F1017F
:100668007130F2002130F3007008720786007108BB
:10067800733D87000108F4007A08703EF500F60122
:100688002130F63D750886007608870074088100D9
:100698000130F0007008FA077D087A02031C552B18
:1006A800562B312B7D08F000F1016F30F20021301C
:1006B800F3007008720786007108733D8700810196
:1006C8000130FD02182C3D085206031D6C2B6D2BC2
:1006D8006F2BBD01BC01531C722B732BB52B3C082F
:1006E800703E860087012130873D0108F0007008C0
:1006F800CE003C08F000F1017130F2002130F30027
:100708007008720786007108733D87000108F400BD
:100718007408CF003C08F000F1017230F20021307B
:10072800F3007008720786007108733D870001089E
:10073800F4007408D0003C08F000F1017330F200B6
:100748002130F3007008720786007108733D870036
:100758000108F4007408D1000430F0007008BC07E8
:10076800182C3D08F0007008BC00FB013D087B0711
:10077800F000F101F10D3E08FF3EF200FF300318D2
:100788000030F3007308803AF4007108803A74026C
:10079800031DD02B700872020318D32BD42BF62B11
:1007A80020003E08F000F1017B08F200F3013C084C
:1007B800703EF400F5012130F53D72087407F6002B
:1007C8007308753DF7007008760286007108773B5C
:1007D80087000108F8007B084E3E860087017808EC
:1007E80081000E2C7B08F000F10120003C08703ECF
:1007F800F200F3012130F33D70087207860071089A
:10080800733D87000108F4007B084E3E860087018F
:10081800740881000130F0007008FB0704307B0287
:10082800031C172C182CBA2B0130F000700820007C
:10083800BD07080020002D08CC002C08CB00CB35C4
:10084800CC0D4B084C0403192A2C2B2CB12CAC01D1
:10085800AD01B901B90AB801B4011F303302031858
:10086800362C372C432C36084106031D3C2C3D2CD6
:10087800432C03303206031D422C432CAB2CB3010E
:10088800B201B20A4108CB004B08B6003608B43EA4
:10089800840087300318013E85000008CB004B0810
:1008A800CE000130CB003608203E860087014B0879
:1008B80081073608203E8600870164300106031D43
:1008C800662C672C6C2C3608203E86008701810137
:1008D8000A30C2000030C3003608203E8600870177
:1008E8000108CB00CC014B08C4004C08C500863178
:1008F8002826843120004308850042088400B4304B
:1009080084078730853D0008CD004D08D0000A30A7
:10091800C2000030C3003608203E86008701010867
:10092800CB00CC014B08C4004C08C5008631882692
:10093800843120004308850042088400B4308407CD
:100948008730853D0008CD004D08D100B12CB70196
:10095800B70A0230CB004B08B2002B08CC002A089B
:10096800CB00CB35CC0D4B084C040319BC2CBD2C4B
:10097800C42CAA01AB01B901B801B80AB301B70187
:100988003203031DC82CC92CD42C1E303306031D7A
:10099800CE2CCF2CD42C0430CB004B08B200B301A2
:1009A8001F303402031CD92CDA2CF92C3708031D0C
:1009B800DE2CDF2CEA2C023032060319E42CE52C5D
:1009C800EA2C0330CB004B08B200F92C3708031986
:1009D800EE2CEF2CF92C3203031DF32CF42CF92CFC
:1009E8000230CB004B08B200F92C3203031DFD2C5A
:1009F800FE2C072DB4308400873085000008CB001A
:100A08004B08CF00342D02303206031D0C2D0D2D5E
:100A1800162DB6308400873085000008CB004B08BF
:100A2800CF00342D03303206031D1B2D1C2D252D20
:100A3800B7308400873085000008CB004B08CF0012
:100A4800342D04303206031D2A2D2B2D342DB530BC
:100A58008400873085000008CB004B08CF00342D78
:100A680008001C34FC34EE34FC341C34FC34EE3402
:100A7800FC341C34FC34EE34FC341C34FC34EE34CA
:100A8800FC340034003400340034023400340034C0
:100A980000340234023400340034023402340234A4
:100AA8000034023402340234023400340034003496
:100AB8000034B6349E34B6340034B6349E34B6347A
:100AC8000034B6349E34B6340034B6349E34B6346A
:100AD8000034DA34FC34DA34FC34DA34FC34DA3412
:100AE800FC34DA34FC34DA34FC34DA34FC34DA3406
:100AF800FC34FC34F7346034E034FC34F7346034CC
:100B0800E034FC34F7346034E034FC34F7346034D7
:100B1800E034023402340234023400340034003445
:100B2800003400340034003400340034003400341D
:100B3800003400340034003400340034003400340D
:100B480000340034003400340034003400340034FD
:100B580000340034003400340034003400340034ED
:100B680000340F3020008D000F300D060319BD2D05
:100B7800BE2DE02D0D18C12DC22DC72D0730F00058
:100B88007008C100272E8D18CA2DCB2DD02D083006
:100B9800F0007008C100272E0D19D32DD42DD92DA2
:100BA8000930F0007008C100272E8D19DC2DDD2DCD
:100BB800DF2DC101272E272E07308D0007300D06A7
:100BC8000319E72DE82D032E0D18EB2DEC2DF12D33
:100BD8000230F0007008C100272E8D18F42DF52D75
:100BE800FA2D0430F0007008C100272E0D19FD2DD4
:100BF800FE2DDF2D0630F0007008C100272E0330CF
:100C08008D0003300D0603190A2E0B2E172E0D1812
:100C18000E2E0F2E122EC101C10A272E0330F0000E
:100C28007008C100272E01308D000D0303191D2EF9
:100C38001E2E232E0530F0007008C100272E0F301D
:100C4800F0007008C10008002000C801C31F2D2E45
:100C58002E2E352EC209C309C20A0319C30AC801B8
:100C6800C80AC51F382E392E422EC409C509C40A20
:100C78000319C50A0130C6004608C806C901CA01D9
:100C8800420843040319492E4A2E792EC701C70A80
:100C9800562E0130C235C30D890B4E2E0130C600C9
:100CA8004608C707C31F592E5A2E4D2E0130C93585
:100CB800CA0D890B5B2E43084502031D652E4208A9
:100CC8004402031C682E692E6E2E4208C402430893
:100CD800C53B49140130C336C20C890B6F2E013055
:100CE800C702031D782E792E5A2E480803197D2E27
:100CF8007E2E832EC909CA09C90A0319CA0A4A08D5
:100D0800C3004908C20008002000C801C51F8D2E75
:100D18008E2E952EC409C509C40A0319C50AC8012F
:100D2800C80AC31F982E992E9E2EC209C309C20A4B
:100D38000319C30A420843040319A32EA42ECD2E77
:100D4800C701C70AB02E0130C235C30D890BA82EC2
:100D58000130C6004608C707C31FB32EB42EA72EFE
:100D680043084502031DBA2E42084402031CBD2E47
:100D7800BE2EC22E4208C4024308C53B0130C3360A
:100D8800C20C890BC32E0130C702031DCC2ECD2EF9
:100D9800B42E48080319D12ED22ED72EC409C5095E
:100DA800C40A0319C50A4508C3004408C20008005C
:100DB8002000AE01AF018531B52586312000390804
:100DC8000319E72EE82EEC2E0130F1007108B40764
:100DD80038080319F02EF12EF52E0130F1007108B4
:100DE800B3070130F1000030F200410AFD2EF13561
:100DF800F20D890BFB2E7108AE007208AF003108A6
:100E0800F2003008F100F109F2092E087105F3002B
:100E18002F087205F4007308AC047408AD042F0899
:100E2800F2002E08F100F109F20930087105F3000B
:100E380031087205F4007308AA047408AB042F087B
:100E4800B1002E08B00008002000C401C5017030B0
:100E5800C2002130C3004408420786004508433DCC
:100E6800870081010130C4070030C53D00304502CC
:100E7800803003194402031C422F432F2B2FFD01FE
:100E8800080005302000C6004608D4000330C6001C
:100E98004608D300C0017D08031D532F542F4F2F40
:100EA800873128278731080087318C278731873198
:100EB8007B27873187314527873187316A278731F3
:100EC80004302000C7004708D30008002000C101F3
:100ED800B501B001B101AE01AF01AC01AD01AA018C
:100EE800AB01B901B801B701B401B30108008B1710
:100EF8000B130B142E009616D03020009E004030A5
:100F08009F00EC309D0082309C002E008C1208005F
:100F18003E00B8012000960191013E00C301200067
:100F2800970192013E00CE0120009801930108002C
:100F3800FE0012001E000130FE020030FF3B7F0859
:100F48007E04031D9D2F00346400800101310130AF
:100F5800FE020030FF3B7F087E04031DA92F0034EA
:100F6800FC346034DA34F2346634B634BE34E034F7
:100F7800FE34F63487315827873184311E2487316F
:100F8800C12F8231402AFF34FF34FF34FF34183434
:0A0F9800EE34DD34BB3477348034CE
:020000040001F9
:0A000E00EC1FFF37BF3FFE2FFE3F3F
:00000001FF
