:020000040000FA
:040400008231402ADB
:100408007E148231EC3020009D0082309C002E004A
:100418008C120130FC007C082000BE078E013E08CB
:100428000339863E840087300318013E85000008A2
:100438008C003E0803394D3E8600870101088E0076
:100448003E080339031D292A2A2A312A0130FC00D3
:100458007C08BF07823171228231033020003E05BB
:10046800FC0002307C06031D3A2A3B2A3E2A8631CC
:10047800992682317E1009008231422AF2308400A6
:100488008430850070308600213087000030FF00FE
:10049800803087315627823187318A278231FD00A3
:1004A80081308400873085004D3086000030870019
:1004B8000030FF0005308731562782312030840014
:1004C800003085002130FE000030FF0087316227B0
:1004D80082317E1020008731782F043020005206A8
:1004E8000319772A782A1D2C3F085306031D7D2AF5
:1004F8007E2A1D2CBF01D21C822A832A672B521CFC
:10050800862A872A0C2B7030860021308700010844
:10051800F0007008CD00703086002130870041312E
:100528000108F0007008CE00703086002130870086
:1005380042310108F0007008CF0070308600213089
:10054800870043310108F0007008D000F901CB2A78
:100558007908F000F1017430F2002130F3007008DE
:10056800720786007108733D87000108F400790856
:10057800703EF500F6012130F63D750886007608D4
:100588008700740881000130F0007008F9077D08C1
:100598007902031CD02AD12AAC2A7D08F000F10187
:1005A8006F30F2002130F30070087207860071087E
:1005B800733D870081017D08F000F1016E30F20083
:1005C8002130F3007008720786007108733D8700B8
:1005D80081017D08F000F1016D30F2002130F30057
:1005E8007008720786007108733D870081017D08D5
:1005F800F000F1016C30F2002130F300700872074E
:1006080086007108733D870081010430FD02182CB3
:1006180070308600213087000108F0007008CD0096
:10062800703086002130870041310108F0007008E1
:10063800CE00703086002130870042310108F0007A
:100648007008CF00703086002130870043310108E0
:10065800F0007008D000FA01502B7A08F000F10180
:100668007130F2002130F3007008720786007108BB
:10067800733D87000108F4007A08703EF500F60122
:100688002130F63D750886007608870074088100D9
:100698000130F0007008FA077D087A02031C552B18
:1006A800562B312B7D08F000F1016F30F20021301C
:1006B800F3007008720786007108733D8700810196
:1006C8000130FD02182C3C085106031D6C2B6D2BC4
:1006D8006F2BBC01BB01521C722B732BB52B3B0833
:1006E800703E860087012130873D0108F0007008C0
:1006F800CD003B08F000F1017130F2002130F30029
:100708007008720786007108733D87000108F400BD
:100718007408CE003B08F000F1017230F20021307D
:10072800F3007008720786007108733D870001089E
:10073800F4007408CF003B08F000F1017330F200B8
:100748002130F3007008720786007108733D870036
:100758000108F4007408D0000430F0007008BB07EA
:10076800182C3C08F0007008BB00FB013C087B0714
:10077800F000F101F10D3D08FF3EF200FF300318D3
:100788000030F3007308803AF4007108803A74026C
:10079800031DD02B700872020318D32BD42BF62B11
:1007A80020003D08F000F1017B08F200F3013B084E
:1007B800703EF400F5012130F53D72087407F6002B
:1007C8007308753DF7007008760286007108773B5C
:1007D80087000108F8007B084D3E860087017808ED
:1007E80081000E2C7B08F000F10120003B08703ED0
:1007F800F200F3012130F33D70087207860071089A
:10080800733D87000108F4007B084D3E8600870190
:10081800740881000130F0007008FB0704307B0287
:10082800031C172C182CBA2B0130F000700820007C
:10083800BC07080020002D08CB002C08CA00CA35C8
:10084800CB0D4A084B0403192A2C2B2C5E2CAC0127
:10085800AD01B801B80AB701B401330A0319352C40
:10086800362C3C2C3508400603193B2C3C2C552CC7
:10087800B3014008CA004A08B50035086E3E840036
:1008880087300318013E85000008CA004A08CD00D9
:100898000130CA003508203E860087014A088107D2
:1008A8005E2C0230CA004A08B200B701FF30CA0005
:1008B8004A08B3002B08CB002A08CA00CA35CB0D5A
:1008C8004A084B040319692C6A2C702CAA01AB0145
:1008D800B801B701B70AB3011E303306031D752CE2
:1008E800762C832C0230320603197B2C7C2C832C2B
:1008F800B201B20AB801FF30CA004A08B3001E307C
:100908003406031D882C892C922C0330CA004A080F
:10091800B200B801FF30CA004A08B3003508203ECB
:100928008600870164300106031D9B2C9C2CA12C9A
:100938003508203E8600870181010A30C100003059
:10094800C2003508203E860087010108CA00CB0195
:100958004A08C3004B08C4008531E52584312000CE
:1009680042088500410884006E3084078730853D41
:100978000008CC004C08CF000A30C1000030C2008B
:100988003508203E860087010108CA00CB014A08C5
:10099800C3004B08C4008631452684312000420834
:1009A8008500410884006E3084078730853D000843
:1009B800CC004C08D00032080319E32CE42CF02CAE
:1009C80032086E3E840087300318013E8500000817
:1009D800CA004A08CE00F12CCE0108001C34FC34B1
:1009E800EE34FC341D34FC34EE34FC341D34FD3458
:1009F800EE34FC341D34FD34EF34FC341D34FD3446
:100A0800EF34FD34B6349E34B6340034DA34FC3472
:100A1800DA34FC34DA34FC34DA34FC34FC34F734B9
:100A28006034E034FC34F7346034E03402340234A7
:100A3800023402340034003400340034003400340A
:100A480000340034003400340034003400340034FE
:100A580000340034003400340034003400340034EE
:100A680000340034003400340034003400340034DE
:100A780000340034003400340034003400340034CE
:100A880000340034003400340034003400340034BE
:100A980000340034003400340034003400340034AE
:100AA800003400340034003400340034003400349E
:100AB800003400340034003400340034003400348E
:100AC800003400340034003400340034003400347E
:100AD8000034003400340034003400340F30200077
:100AE8008D000F300D0603197A2D7B2D9D2D0D18C5
:100AF8007E2D7F2D842D0730F0007008C000E42D76
:100B08008D18872D882D8D2D0830F0007008C000B5
:100B1800E42D0D19902D912D962D0930F0007008B7
:100B2800C000E42D8D19992D9A2D9C2DC001E42D1E
:100B3800E42D07308D0007300D060319A42DA52DCF
:100B4800C02D0D18A82DA92DAE2D0230F00070086B
:100B5800C000E42D8D18B12DB22DB72D0430F00052
:100B68007008C000E42D0D19BA2DBB2D9C2D063040
:100B7800F0007008C000E42D03308D0003300D062E
:100B88000319C72DC82DD42D0D18CB2DCC2DCF2D45
:100B9800C001C00AE42D0330F0007008C000E42D45
:100BA80001308D000D030319DA2DDB2DE02D053002
:100BB800F0007008C000E42D0F30F0007008C0008D
:100BC80008002000C701C21FEA2DEB2DF22DC10934
:100BD800C209C10A0319C20AC701C70AC41FF52DF1
:100BE800F62DFF2DC309C409C30A0319C40A01302D
:100BF800C5004508C706C801C901410842040319D0
:100C0800062E072E362EC601C60A132E0130C13510
:100C1800C20D890B0B2E0130C5004508C607C21F3F
:100C2800162E172E0A2E0130C835C90D890B182E1D
:100C380042084402031D222E41084302031C252EAC
:100C4800262E2B2E4108C3024208C43B481401300B
:100C5800C236C10C890B2C2E0130C602031D352E5D
:100C6800362E172E470803193A2E3B2E402EC80958
:100C7800C909C80A0319C90A4908C2004808C100B5
:100C880008002000C701C41F4A2E4B2E522EC3094C
:100C9800C409C30A0319C40AC701C70AC21F552ECB
:100CA800562E5B2EC109C209C10A0319C20A41089E
:100CB80042040319602E612E8A2EC601C60A6D2EC3
:100CC8000130C135C20D890B652E0130C5004508BC
:100CD800C607C21F702E712E642E42084402031DDF
:100CE800772E41084302031C7A2E7B2E7F2E410863
:100CF800C3024208C43B0130C236C10C890B802EA6
:100D08000130C602031D892E8A2E712E4708031949
:100D18008E2E8F2E942EC309C409C30A0319C40A40
:100D28004408C2004308C10008002000AE01AF011A
:100D3800853172258631200038080319A42EA52E86
:100D4800A92E0130F1007108B40737080319AD2E38
:100D5800AE2EB22E0130F1007108B3070130F10058
:100D68000030F200400ABA2EF135F20D890BB82E88
:100D78007108AE007208AF003108F2003008F100C7
:100D8800F109F2092E087105F3002F087205F40025
:100D98007308AC047408AD042F08F2002E08F100A3
:100DA800F109F20930087105F30031087205F40001
:100DB8007308AA047408AB042F08B1002E08B00009
:100DC80008002000C301C4017030C1002130C200F6
:100DD8004308410786004408423D870081010130ED
:100DE800C3070030C43D0030440280300319430279
:100DF800031CFF2E002FE82EFD010800873136273F
:100E08008731873125278731873114278731873103
:100E18004627873104302000C6004608D200080063
:100E28002000D301D30A0330C5004508D200BF0112
:100E38007D08031D202F212F1C2F8631E5268731A1
:100E480008008B170B130B142E009616D0302000B9
:100E58009E0040309F00EC309D0082309C002E00A8
:100E68008C1208003E00B8012000960191013E0056
:100E7800C3012000970192013E00CE012000980195
:100E8800930108002000C001B001B101AE01AF011B
:100E9800AC01AD01AA01AB01B801B701B601B401BB
:100EA800B3010800FE0012001E000130FE020030EF
:100EB800FF3B7F087E04031D572F00346400800128
:100EC80001310130FE020030FF3B7F087E04031D24
:100ED800632F0034FC346034DA34F2346634B634C8
:100EE800BE34E034FE34F63487310227873184314A
:100EF8001E2487317B2F8231402AFF34FF34FF3490
:0E0F0800FF340D34EE34DD34BB347734343432
:020000040001F9
:0A000E00EC1FFF37BF3FFE2FFE3F3F
:00000001FF
