:020000040000FA
:040400008231402ADB
:100408007E148231EC3020009D0082309C002E004A
:100418008C120130FC007C082000BF078E013F08C9
:100428000339A23E840087300318013E8500000886
:100438008C003F0803394E3E8600870101088E0074
:100448003F080339031D292A2A2A312A0130FC00D2
:100458007C08C007823171228231033020003F05B9
:10046800FC0002307C06031D3A2A3B2A3E2A8631CC
:10047800B22682317E1009008231422A0B30840074
:100488008530850070308600213087000030FF00FD
:1004980080308731722782318731A6278231FD006B
:1004A8009D308400873085004E30860000308700FC
:1004B8000030FF00053087317227823120308400F8
:1004C800003085002230FE000030FF0087317E2793
:1004D80082317E1020008731942F0430200053068B
:1004E8000319772A782A1D2C40085406031D7D2AF3
:1004F8007E2A1D2CC001D31C822A832A672B531CF9
:10050800862A872A0C2B7030860021308700010844
:10051800F0007008CE00703086002130870041312D
:100528000108F0007008CF00703086002130870085
:1005380042310108F0007008D00070308600213088
:10054800870043310108F0007008D100F901CB2A77
:100558007908F000F1017430F2002130F3007008DE
:10056800720786007108733D87000108F400790856
:10057800703EF500F6012130F63D750886007608D4
:100588008700740881000130F0007008F9077D08C1
:100598007902031CD02AD12AAC2A7D08F000F10187
:1005A8006F30F2002130F30070087207860071087E
:1005B800733D870081017D08F000F1016E30F20083
:1005C8002130F3007008720786007108733D8700B8
:1005D80081017D08F000F1016D30F2002130F30057
:1005E8007008720786007108733D870081017D08D5
:1005F800F000F1016C30F2002130F300700872074E
:1006080086007108733D870081010430FD02182CB3
:1006180070308600213087000108F0007008CE0095
:10062800703086002130870041310108F0007008E1
:10063800CF00703086002130870042310108F00079
:100648007008D000703086002130870043310108DF
:10065800F0007008D100FA01502B7A08F000F1017F
:100668007130F2002130F3007008720786007108BB
:10067800733D87000108F4007A08703EF500F60122
:100688002130F63D750886007608870074088100D9
:100698000130F0007008FA077D087A02031C552B18
:1006A800562B312B7D08F000F1016F30F20021301C
:1006B800F3007008720786007108733D8700810196
:1006C8000130FD02182C3D085206031D6C2B6D2BC2
:1006D8006F2BBD01BC01531C722B732BB52B3C082F
:1006E800703E860087012130873D0108F0007008C0
:1006F800CE003C08F000F1017130F2002130F30027
:100708007008720786007108733D87000108F400BD
:100718007408CF003C08F000F1017230F20021307B
:10072800F3007008720786007108733D870001089E
:10073800F4007408D0003C08F000F1017330F200B6
:100748002130F3007008720786007108733D870036
:100758000108F4007408D1000430F0007008BC07E8
:10076800182C3D08F0007008BC00FB013D087B0711
:10077800F000F101F10D3E08FF3EF200FF300318D2
:100788000030F3007308803AF4007108803A74026C
:10079800031DD02B700872020318D32BD42BF62B11
:1007A80020003E08F000F1017B08F200F3013C084C
:1007B800703EF400F5012130F53D72087407F6002B
:1007C8007308753DF7007008760286007108773B5C
:1007D80087000108F8007B084E3E860087017808EC
:1007E80081000E2C7B08F000F10120003C08703ECF
:1007F800F200F3012130F33D70087207860071089A
:10080800733D87000108F4007B084E3E860087018F
:10081800740881000130F0007008FB0704307B0287
:10082800031C172C182CBA2B0130F000700820007C
:10083800BD07080020002D08CC002C08CB00CB35C4
:10084800CC0D4B084C0403192A2C2B2CAF2CAC01D3
:10085800AD01B901B90AB801B4011F303302031858
:10086800362C372C3D2C3608410603193C2C3D2CE0
:10087800A52CB301B201B20A4108CB004B08B6005F
:1008880036088A3E840087300318013E8500000838
:10089800CB004B08CE000130CB003608203E860046
:1008A80087014B0881073608203E8600870164309F
:1008B8000106031D602C612C662C3608203E86003C
:1008C800870181010A30C2000030C3003608203E8B
:1008D800860087010108CB00CC014B08C4004C08F6
:1008E800C5008531FE258431200043088500420873
:1008F80084008A3084078730853D0008CD004D0884
:10090800D0000A30C2000030C3003608203E8600FE
:1009180087010108CB00CC014B08C4004C08C50076
:1009280086315E2684312000430885004208840011
:100938008A3084078730853D0008CD004D08D100F6
:10094800AF2CB701B70A8C308400873085000008C7
:10095800CB004B08CF002B08CC002A08CB00CB35A6
:10096800CC0D4B084C040319BA2CBB2CD52CAA016E
:10097800AB01B901B801B80AB301B7011E3034029E
:100988000318C72CC82CD52C3203031DCC2CCD2C16
:10099800D52C8B308400873085000008CB004B08AD
:1009A800CF003203031DD92CDA2CE92C1E30330674
:1009B800031DDF2CE02CE92C8B3084008730850068
:1009C8000008CB004B08CF00B3011F303402031CD2
:1009D800EE2CEF2C0A2D3708031DF32CF42CFD2CDC
:1009E8008D308400873085000008CB004B08CF008D
:1009F8000A2D37080319012D022D0A2D8C30840089
:100A0800873085000008CB004B08CF0008001C3455
:100A1800FC34EE34FC341C34FC34EE34FC341C342A
:100A2800FC34EE34FC341C34FC34EE34FC34003436
:100A3800003400340034023400340034003402340A
:100A480002340034003402340234023400340234F4
:100A58000234023402340034003400340034B63432
:100A68009E34B6340034B6349E34B6340034B634CA
:100A78009E34B6340034B6349E34B6340034DA3496
:100A8800FC34DA34FC34DA34FC34DA34FC34DA3466
:100A9800FC34DA34FC34DA34FC34DA34FC34FC3434
:100AA800F7346034E034FC34F7346034E034FC3438
:100AB800F7346034E034FC34F7346034E034023422
:100AC8000234023402340034003400340034003478
:100AD800003400340034003400340034003400346E
:100AE800003400340034003400340034003400345E
:100AF800003400340034003400340034003400344E
:100B080000340034003400340034003400340F3032
:100B180020008D000F300D060319932D942DB62D4E
:100B28000D18972D982D9D2D0730F0007008C100E5
:100B3800FD2D8D18A02DA12DA62D0830F0007008D0
:100B4800C100FD2D0D19A92DAA2DAF2D0930F000DA
:100B58007008C100FD2D8D19B22DB32DB52DC10121
:100B6800FD2DFD2D07308D0007300D060319BD2D15
:100B7800BE2DD92D0D18C12DC22DC72D0230F00064
:100B88007008C100FD2D8D18CA2DCB2DD02D043035
:100B9800F0007008C100FD2D0D19D32DD42DB52DF1
:100BA8000630F0007008C100FD2D03308D000330C1
:100BB8000D060319E02DE12DED2D0D18E42DE52D81
:100BC800E82DC101C10AFD2D0330F0007008C100F5
:100BD800FD2D01308D000D030319F32DF42DF92D92
:100BE8000530F0007008C100FD2D0F30F0007008CE
:100BF800C10008002000C801C31F032E042E0B2EBD
:100C0800C209C309C20A0319C30AC801C80AC51F11
:100C18000E2E0F2E182EC409C509C40A0319C50AB9
:100C28000130C6004608C806C901CA014208430483
:100C380003191F2E202E4F2EC701C70A2C2E013054
:100C4800C235C30D890B242E0130C6004608C707DC
:100C5800C31F2F2E302E232E0130C935CA0D890B04
:100C6800312E43084502031D3B2E42084402031C53
:100C78003E2E3F2E442E4208C4024308C53B491469
:100C88000130C336C20C890B452E0130C702031D43
:100C98004E2E4F2E302E48080319532E542E592EFF
:100CA800C909CA09C90A0319CA0A4A08C30049086E
:100CB800C20008002000C801C51F632E642E6B2ED9
:100CC800C409C509C40A0319C50AC801C80AC31F4B
:100CD8006E2E6F2E742EC209C309C20A0319C30AE5
:100CE800420843040319792E7A2EA32EC701C70A96
:100CF800862E0130C235C30D890B7E2E0130C60009
:100D08004608C707C31F892E8A2E7D2E4308450231
:100D1800031D902E42084402031C932E942E982EF5
:100D28004208C4024308C53B0130C336C20C890BD4
:100D3800992E0130C702031DA22EA32E8A2E480821
:100D48000319A72EA82EAD2EC409C509C40A031974
:100D5800C50A4508C3004408C20008002000AE01C7
:100D6800AF0185318B258631200039080319BD2E46
:100D7800BE2EC22E0130F1007108B40738080319DD
:100D8800C62EC72ECB2E0130F1007108B3070130F3
:100D9800F1000030F200410AD32EF135F20D890B33
:100DA800D12E7108AE007208AF003108F200300889
:100DB800F100F109F2092E087105F3002F087205F8
:100DC800F4007308AC047408AD042F08F2002E0870
:100DD800F100F109F20930087105F30031087205D4
:100DE800F4007308AA047408AB042F08B1002E0895
:100DF800B00008002000C401C5017030C2002130D5
:100E0800C3004408420786004508433D8700810126
:100E18000130C4070030C53D003045028030031959
:100E28004402031C182F192F012FFD01080005305B
:100E38002000C6004608D4000330C6004608D30088
:100E4800C0017D08031D292F2A2F252F8631FE2654
:100E580087310800873162278731873151278731E9
:100E680087311B278731873140278731043020009D
:100E7800C7004708D30008002000C101B501B00130
:100E8800B101AE01AF01AC01AD01AA01AB01B901DD
:100E9800B801B701B401B30108008B170B130B1489
:100EA8002E009616D03020009E0040309F00EC3077
:100EB8009D0082309C002E008C1208003E00B80174
:100EC8002000960191013E00C30120009701920184
:100ED8003E00CE012000980193010800FE00120098
:100EE8001E000130FE020030FF3B7F087E04031D18
:100EF800732F00346400800101310130FE0200309C
:100F0800FF3B7F087E04031D7F2F0034FC346034D0
:100F1800DA34F2346634B634BE34E034FE34F634AF
:100F280087312E27873184311E248731972F8231CC
:100F3800402AFF34FF34FF34FF341834EE34DD34F4
:060F4800BB347734803455
:020000040001F9
:0A000E00EC1FFF37BF3FFE2FFE3F3F
:00000001FF
