:020000040000FA
:040400008231332AE8
:100408007E148231EC3020009D0082309C002E004A
:100418008C120130FC007C082000A4078E012408FF
:100428000339031D182A192A1D2A0130FC007C08EB
:10043800A507240803391F3E840085300318013EB0
:10044800850000088C0024080339263E86008701B1
:1004580001088E0082315F2282317E1009008231CC
:10046800352A0630840084308500703086002130BB
:1004780087000030FF0080308431EF2482318531DD
:1004880023258231FD00193084008530850026300F
:100498008600003087000030FF0006308431EF24EA
:1004A8008231A001A101A201A301A401A5017E102E
:1004B80020008531102D200025083106031D652AEE
:1004C800662A052CA501AA1C6A2A6B2A4F2B2A1C0E
:1004D8006E2A6F2AF42A70308600213087000108BE
:1004E800F0007008A6007030860021308700413186
:1004F8000108F0007008A7007030860021308700DE
:1005080042310108F0007008A800703086002130E0
:10051800870043310108F0007008A900F901B32AE7
:100528007908F000F1017430F2002130F30070080E
:10053800720786007108733D87000108F400790886
:10054800703EF500F6012130F63D75088600760804
:100558008700740881000130F0007008F9077D08F1
:100568007902031CB82AB92A942A7D08F000F101FF
:100578006F30F2002130F3007008720786007108AE
:10058800733D870081017D08F000F1016E30F200B3
:100598002130F3007008720786007108733D8700E8
:1005A80081017D08F000F1016D30F2002130F30087
:1005B8007008720786007108733D870081017D0805
:1005C800F000F1016C30F2002130F300700872077E
:1005D80086007108733D870081010430FD02002CFC
:1005E80070308600213087000108F0007008A600EE
:1005F800703086002130870041310108F000700812
:10060800A700703086002130870042310108F000D1
:100618007008A80070308600213087004331010837
:10062800F0007008A900FA01382B7A08F000F101EF
:100638007130F2002130F3007008720786007108EB
:10064800733D87000108F4007A08703EF500F60152
:100658002130F63D75088600760887007408810009
:100668000130F0007008FA077D087A02031C3D2B60
:100678003E2B192B7D08F000F1016F30F20021307C
:10068800F3007008720786007108733D87008101C6
:100698000130FD02002C22082B06031D542B552B7C
:1006A800572BA201A1012A1C5A2B5B2B9D2B210839
:1006B800703E860087012130873D0108F0007008F0
:1006C800A6002108F000F1017130F2002130F3009A
:1006D8007008720786007108733D87000108F400EE
:1006E8007408A7002108F000F1017230F2002130EF
:1006F800F3007008720786007108733D87000108CF
:10070800F4007408A8002108F000F1017330F20029
:100718002130F3007008720786007108733D870066
:100728000108F4007408A9000430F0007008A1075B
:10073800002C2208F0007008A100FB0122087B07AA
:10074800F000F101F10D2308FF3EF200FF3003181D
:100758000030F3007308803AF4007108803A74029C
:10076800031DB82B700872020318BB2BBC2BDE2BA1
:1007780020002308F000F1017B08F200F3012108B2
:10078800703EF400F5012130F53D72087407F6005B
:100798007308753DF7007008760286007108773B8C
:1007A80087000108F8007B08263E86008701780844
:1007B8008100F62B7B08F000F10120002108703E33
:1007C800F200F3012130F33D7008720786007108CA
:1007D800733D87000108F4007B08263E86008701E8
:1007E800740881000130F0007008FB0704307B02B8
:1007F800031CFF2B002CA22B0130F00070082000F6
:10080800A20708001C34FC34EE34FC3400340034F5
:100818000034003410340034003400341034103400
:1008280000340034103410341034003410341034D0
:100838001034103410341034103430341034103470
:1008480010347034103410341034F0341034103440
:100858009034F034103490349034F0349034903430
:100868009034F034943490349034F0349C34903490
:100878009034F034803400340034003480348034D0
:100888000034003480348034803400348034803440
:1008980080348034803480348034C0348034803470
:1008A8008034E034803480348034F03480348034D0
:1008B8009034F034803490349034F0349034903460
:1008C8009034F034983490349034F0349C3490342C
:1008D8009034F0340034003400340034B6349E349C
:1008E800B6340034DA34FC34DA34FC34FC34F7340B
:1008F8006034B73402340234023402340034003431
:10090800003400342000B0013008063E84008530F1
:100918000318013E850000088431AB24843101307E
:100928002000AF002F08B0070A303002031C9D2CAE
:100938009E2C882C0A30AF002F08B1000A30AF0077
:100948002F08AB000230AF002F08AA0008002000D3
:10095800AE00AA1CB02CB12CC12C7D08703EAC0096
:10096800AD012130AD3D2C0886002D0887002E08EA
:1009780081000130AC002C08FD0708008B170B1311
:100988000B142E009616D03020009E0040309F0099
:10099800EC309D0082309C002E008C1208000A303A
:1009A8002000AC002C08B1000330AC002C08AA00D1
:1009B8007D08031DE02CE12CDC2C08008431FB248D
:1009C80084318431C22484318431D3248431843104
:1009D800862484310800FE0012001E000130FE0249
:1009E8000030FF3B7F087E04031DF02C00343E00DE
:1009F800B8012000960191013E00CE012000980127
:100A080093010800FC346034DA34F2346634B634C6
:100A1800BE34E034FE34F6348431E2248531853145
:100A280024258531132D8231332AFF34FF34FF34D6
:100A3800FF3401342034EE34DD34BB347734803471
:020A48000800A4
:020000040001F9
:0A000E00EC1FFF37BF3FFE2FFE3F3F
:00000001FF
