:020000040000FA
:040400008231402ADB
:100408007E148231EC3020009D0082309C002E004A
:100418008C120130FC007C082000AF078E012F08E9
:100428000339173E840086300318013E8500000812
:100438008C002F080339383E8600870101088E009A
:100448002F080339031D292A2A2A312A0130FC00E2
:100458007C08B007823178228231033020002F05D2
:10046800FC0002307C06031D3A2A3B2A3E2A8431CE
:10047800252482317E1009008231422ACC30840042
:100488008430850070308600213087000030FF00FE
:1004980080308531E725823186311B268231FD0087
:1004A800123084008630850038308600003087009E
:1004B8000030FF0005308531E7258231A001A10118
:1004C800A201A301A401A501A601A701A801A901F0
:1004D800AA01AB01AC01AD01AE01AF01B001B101A0
:1004E8007E1020008631092E043020003D060319B5
:1004F8007E2A7F2A242C30083E06031D842A852A5A
:10050800242CB001BD1C892A8A2A6E2B3D1C8D2AF9
:100518008E2A132B70308600213087000108F000E6
:100528007008B8007030860021308700413101081A
:10053800F0007008B9007030860021308700423121
:100548000108F0007008BA0070308600213087007A
:1005580043310108F0007008BB00F901D22A79087C
:10056800F000F1017430F2002130F30070087207D6
:1005780086007108733D87000108F4007908703E11
:10058800F500F6012130F63D7508860076088700EB
:10059800740881000130F0007008F9077D087902BD
:1005A800031CD72AD82AB32A7D08F000F1016F303E
:1005B800F2002130F3007008720786007108733D5D
:1005C800870081017D08F000F1016E30F2002130D2
:1005D800F3007008720786007108733D8700810177
:1005E8007D08F000F1016D30F2002130F300700851
:1005F800720786007108733D870081017D08F0004D
:10060800F1016C30F2002130F300700872078600A7
:100618007108733D870081010430FD021F2C703082
:100628008600213087000108F0007008B80070309B
:1006380086002130870041310108F0007008B900B8
:10064800703086002130870042310108F0007008C0
:10065800BA00703086002130870043310108F0006D
:100668007008BB00FA01572B7A08F000F1017130CD
:10067800F2002130F3007008720786007108733D9C
:1006880087000108F4007A08703EF500F601213071
:10069800F63D7508860076088700740881000130E9
:1006A800F0007008FA077D087A02031C5C2B5D2BAA
:1006B800382B7D08F000F1016F30F2002130F30093
:1006C8007008720786007108733D87008101013048
:1006D800FD021F2C2D083C06031D732B742B762B53
:1006E800AD01AC013D1C792B7A2BBC2B2C08703E3C
:1006F800860087012130873D0108F0007008B800A6
:100708002C08F000F1017130F2002130F30070087C
:10071800720786007108733D87000108F4007408A9
:10072800B9002C08F000F1017230F2002130F3001A
:100738007008720786007108733D87000108F4008D
:100748007408BA002C08F000F1017330F20021306F
:10075800F3007008720786007108733D870001086E
:10076800F4007408BB000430F0007008AC071F2CBC
:100778002D08F0007008AC00FB012D087B07F00085
:10078800F101F10D2E08FF3EF200FF300318003092
:10079800F3007308803AF4007108803A7402031D6C
:1007A800D72B700872020318DA2BDB2BFD2B2000E5
:1007B8002E08F000F1017B08F200F3012C08703ECE
:1007C800F400F5012130F53D72087407F60073084E
:1007D800753DF7007008760286007108773B870040
:1007E8000108F8007B08383E8600870178088100F8
:1007F800152C7B08F000F10120002C08703EF20057
:10080800F3012130F33D7008720786007108733DCB
:1008180087000108F4007B08383E860087017408C9
:1008280081000130F0007008FB0704307B02031CD4
:100838001E2C1F2CC12B0130F00070082000AD07C2
:1008480008002000A401A5010F308D000F300D060F
:1008580003192F2C302C522C0D18332C342C392CF6
:100868000730F0007008B100992C8D183C2C3D2CF5
:10087800422C0830F0007008B100992C0D19452C55
:10088800462C4B2C0930F0007008B100992C8D19BA
:100898004E2C4F2C512CB101992C992C07308D00DE
:1008A80007300D060319592C5A2C752C0D185D2C80
:1008B8005E2C632C0230F0007008B100992C8D1862
:1008C800662C672C6C2C0430F0007008B100992C51
:1008D8000D196F2C702C512C0630F0007008B100E7
:1008E800992C03308D0003300D0603197C2C7D2CC8
:1008F800892C0D18802C812C842CB101B10A992CDB
:100908000330F0007008B100992C01308D000D0300
:1009180003198F2C902C952C0530F0007008B1002D
:10092800992C0F30F0007008B1000130F000003051
:10093800F100310AA12CF035F10D890B9F2C7008BC
:10094800A4007108A5002708F1002608F000F009A6
:10095800F10924087005F20025087105F3007208F2
:10096800A2047308A3042508F1002408F000F00984
:10097800F10926087005F20027087105F3007208CE
:10098800A0047308A1042508A7002408A6000800ED
:100998001C34FC34EE34FC341C34FC34EE34FC34AB
:1009A800003400340034003410340034003400348F
:1009B800103410340034003410341034103400343F
:1009C80010341034103410341034103410343034DF
:1009D8001034103410347034103410341034F034AF
:1009E800103410349034F034103490349034F0349F
:1009F800903490349034F034943490349034F0340B
:100A08009C3490349034F034003400340034003492
:100A1800B6349E34B6340034DA34FC34DA34FC3478
:100A2800FC34F7346034E0340234023402340234E3
:100A3800003400340034003400340034003400340E
:100A480000340034003400340034003400340034FE
:100A580000340034003400340034003400340034EE
:100A680000340034003400340034003400340034DE
:100A780000340034003400340034003400340034CE
:100A880000340034003400340034003400340034BE
:100A980020002308B3002208B200B235B30D320893
:100AA80033040319582D592D662D3108FF3E840053
:100AB80085300318013E85000008B2003208A800FE
:100AC800A201A3012108B3002008B200B235B30D7A
:100AD800320833040319712D722D832D2808B200B2
:100AE80029080339383E8600870132088100013021
:100AF800B2003208A907A201A301A001A1010800C0
:100B08002000B401B5017030B2002130B3003408C0
:100B1800320786003508333D870081010130B4076C
:100B28000030B53D00303502803003193402031C13
:100B38009E2D9F2D872DFD01080005302000B60051
:100B48003608BE000330B6003608BD00B0017D0887
:100B5800031DAF2DB02DAB2D8531842585310800BF
:100B68008531D72585318531C62585318531A12542
:100B780085318531F325853104302000B7003708E9
:100B8800BD0008008B170B130B142E009616D030DF
:100B980020009E0040309F00EC309D0082309C0079
:100BA8002E008C1208003E00B80120009601910129
:100BB8003E00C3012000970192013E00CE012000B3
:100BC800980193010800FE0012001E000130FE0289
:100BD8000030FF3B7F087E04031DE82D0034200011
:100BE800B101A901A601A701A401A501A201A301C0
:100BF800A001A1010800FC346034DA34F234663410
:100C0800B634BE34E034FE34F6348531B42586314A
:100C180085314C2586310C2E8231402AFF34FF3431
:100C2800FF34FF341634EE34DD34BB34773480348B
:020000040001F9
:0A000E00EC1FFF37BF3FFE2FFE3F3F
:00000001FF
