:020000040000FA
:040400008231402ADB
:100408007E148231EC3020009D0082309C002E004A
:100418008C120130FC007C082000BC078E013C08CF
:100428000339633E840087300318013E85000008C5
:100438008C003C0803394B3E8600870101088E007A
:100448003C080339031D292A2A2A312A0130FC00D5
:100458007C08BD07823171228231033020003C05BF
:10046800FC0002307C06031D3A2A3B2A3E2A8431CE
:100478001E2482317E1009008231422A8E30840087
:100488008530850070308600213087000030FF00FD
:100498008030873133278231873167278231FD00E9
:1004A8005E308400873085004B308600003087003E
:1004B8000030FF0005308731332782312030840037
:1004C800003085001F30FE000030FF0087313F27D5
:1004D80082317E1020008731552F043020005006CD
:1004E8000319772A782A1D2C3D085106031D7D2AF9
:1004F8007E2A1D2CBD01D01C822A832A672B501C02
:10050800862A872A0C2B7030860021308700010844
:10051800F0007008CB007030860021308700413130
:100528000108F0007008CC00703086002130870088
:1005380042310108F0007008CD007030860021308B
:10054800870043310108F0007008CE00F901CB2A7A
:100558007908F000F1017430F2002130F3007008DE
:10056800720786007108733D87000108F400790856
:10057800703EF500F6012130F63D750886007608D4
:100588008700740881000130F0007008F9077D08C1
:100598007902031CD02AD12AAC2A7D08F000F10187
:1005A8006F30F2002130F30070087207860071087E
:1005B800733D870081017D08F000F1016E30F20083
:1005C8002130F3007008720786007108733D8700B8
:1005D80081017D08F000F1016D30F2002130F30057
:1005E8007008720786007108733D870081017D08D5
:1005F800F000F1016C30F2002130F300700872074E
:1006080086007108733D870081010430FD02182CB3
:1006180070308600213087000108F0007008CB0098
:10062800703086002130870041310108F0007008E1
:10063800CC00703086002130870042310108F0007C
:100648007008CD00703086002130870043310108E2
:10065800F0007008CE00FA01502B7A08F000F10182
:100668007130F2002130F3007008720786007108BB
:10067800733D87000108F4007A08703EF500F60122
:100688002130F63D750886007608870074088100D9
:100698000130F0007008FA077D087A02031C552B18
:1006A800562B312B7D08F000F1016F30F20021301C
:1006B800F3007008720786007108733D8700810196
:1006C8000130FD02182C3A084F06031D6C2B6D2BC8
:1006D8006F2BBA01B901501C722B732BB52B39083B
:1006E800703E860087012130873D0108F0007008C0
:1006F800CB003908F000F1017130F2002130F3002D
:100708007008720786007108733D87000108F400BD
:100718007408CC003908F000F1017230F200213081
:10072800F3007008720786007108733D870001089E
:10073800F4007408CD003908F000F1017330F200BC
:100748002130F3007008720786007108733D870036
:100758000108F4007408CE000430F0007008B907EE
:10076800182C3A08F0007008B900FB013A087B071A
:10077800F000F101F10D3B08FF3EF200FF300318D5
:100788000030F3007308803AF4007108803A74026C
:10079800031DD02B700872020318D32BD42BF62B11
:1007A80020003B08F000F1017B08F200F301390852
:1007B800703EF400F5012130F53D72087407F6002B
:1007C8007308753DF7007008760286007108773B5C
:1007D80087000108F8007B084B3E860087017808EF
:1007E80081000E2C7B08F000F10120003908703ED2
:1007F800F200F3012130F33D70087207860071089A
:10080800733D87000108F4007B084B3E8600870192
:10081800740881000130F0007008FB0704307B0287
:10082800031C172C182CBA2B0130F000700820007C
:10083800BA0708002000AE01AF010F308D000F305D
:100848000D060319282C292C4B2C0D182C2C2D2C7B
:10085800322C0730F0007008BE00922C8D18352C11
:10086800362C3B2C0830F0007008BE00922C0D1975
:100878003E2C3F2C442C0930F0007008BE00922C0E
:100888008D19472C482C4A2CBE01922C922C0730EB
:100898008D0007300D060319522C532C6E2C0D18A1
:1008A800562C572C5C2C0230F0007008BE00922C9D
:1008B8008D185F2C602C652C0430F0007008BE0089
:1008C800922C0D19682C692C4A2C0630F0007008FF
:1008D800BE00922C03308D0003300D060319752CD1
:1008E800762C822C0D18792C7A2C7D2CBE01BE0A10
:1008F800922C0330F0007008BE00922C01308D005D
:100908000D030319882C892C8E2C0530F0007008F3
:10091800BE00922C0F30F0007008BE003508031995
:10092800962C972C9C2C0130F0007008B607A72C49
:100938001E3036020318A12CA22CA32C972CFF30B2
:10094800F0007008B6000130F0000030F1003E0AF7
:10095800AF2CF035F10D890BAD2C7008AE00710885
:10096800AF003108F1003008F000F009F1092E0855
:100978007005F2002F087105F3007208AC047308C3
:10098800AD042F08F1002E08F000F009F109300835
:100998007005F20031087105F3007208AA047308A3
:1009A800AB042F08B1002E08B000080020002D0865
:1009B800C9002C08C800C835C90D480849040319DE
:1009C800E62CE72C0B2DAC01AD01B501B50A360AB2
:1009D800031DEF2CF02C092D3E084B3E8400873078
:1009E8000318013E85000008C8004808CB003E08EF
:1009F800C8004808B3000130C8003E08203E860001
:100A0800870148088107B6010B2DB401B40A2B08E9
:100A1800C9002A08C800C835C90D4808490403197F
:100A2800162D172D8D2DAA01AB01B5013408031918
:100A38001E2D1F2D282D4D3084008730850000087D
:100A4800C8004808CC003F2D1F303602031C2D2D4E
:100A58002E2D372D4C308400873085000008C800C3
:100A68004808CC003F2D4B308400873085000008B3
:100A7800C8004808CC003308203E8600870164304F
:100A88000106031D482D492D4E2D3308203E8600B2
:100A9800870181010A30BF000030C0003308203EC2
:100AA800860087010108C800C9014808C100490833
:100AB800C20086310E2684312000400885003F0898
:100AC80084004B3084078730853D0008CA004A08F7
:100AD800CD000A30BF000030C0003308203E860039
:100AE80087010108C800C9014808C1004908C200B7
:100AF80086316E2684312000400885003F08840036
:100B08004B3084078730853D0008CA004A08CE006C
:100B1800B40108001C34FC34EE34FC341C34FC34BE
:100B2800EE34FC3400340034003400341034003423
:100B380000340034103410340034003410341034CD
:100B4800103400341034103410341034103410348D
:100B580010343034103410341034703410341034ED
:100B68001034F034103410349034F034103490349D
:100B78009034F034903490349034F0349434903489
:100B88009034F0349C3490349034F0340034003491
:100B980000340034B6349E34B6340034DA34FC34CD
:100BA800DA34FC34FC34F7346034E0340234023490
:100BB8000234023400340034003400340034003489
:100BC800003400340034003400340034003400347D
:100BD800003400340034003400340034003400346D
:100BE800003400340034003400340034003400345D
:100BF800003400340034003400340034003400344D
:100C0800003400340034003400340034003400343C
:100C1800003400342000C501C01F132E142E1B2ED3
:100C2800BF09C009BF0A0319C00AC501C50AC21F06
:100C38001E2E1F2E282EC109C209C10A0319C20A75
:100C48000130C3004308C506C601C7013F08400478
:100C580003192F2E302E5F2EC401C40A3C2E0130FA
:100C6800BF35C00D890B342E0130C3004308C407BB
:100C7800C01F3F2E402E332E0130C635C70D890BBD
:100C8800412E40084202031D4B2E3F084102031C1F
:100C98004E2E4F2E542E3F08C1024008C23B461428
:100CA8000130C036BF0C890B552E0130C402031D1C
:100CB8005E2E5F2E402E45080319632E642E692E82
:100CC800C609C709C60A0319C70A4708C000460863
:100CD800BF0008002000C501C21F732E742E7B2E92
:100CE800C109C209C10A0319C20AC501C50AC01F40
:100CF8007E2E7F2E842EBF09C009BF0A0319C00AA1
:100D08003F0840040319892E8A2EB32EC401C40A51
:100D1800962E0130BF35C00D890B8E2E0130C300D1
:100D28004308C407C01F992E9A2E8D2E40084202F0
:100D3800031DA02E3F084102031CA32EA42EA82E9B
:100D48003F08C1024008C23B0130C036BF0C890BC6
:100D5800A92E0130C402031DB22EB32E9A2E4508C7
:100D68000319B72EB82EBD2EC109C209C10A03192D
:100D7800C20A4208C0004108BF0008002000C101A3
:100D8800C2017030BF002130C00041083F07860013
:100D98004208403D870081010130C1070030C23D53
:100DA80000304202803003194102031CDC2EDD2E84
:100DB800C52EFD01080005302000C3004308D100FE
:100DC8000330C3004308D000BD017D08031DED2E8C
:100DD800EE2EE92E8631C226863108008731152786
:100DE80086318731042786318631DF26863187317F
:100DF8002527863104302000C4004408D0000800AC
:100E08008B170B130B142E009616D03020009E0063
:100E180040309F00EC309D0082309C002E008C12E8
:100E280008003E00B8012000960191013E00C30170
:100E38002000970192013E00CE0120009801930105
:100E480008002000BE01B201B001B101AE01AF013E
:100E5800AC01AD01AA01AB01B501B4010800FE0067
:100E680012001E000130FE020030FF3B7F087E04A6
:100E7800031D342F00346400800101310130FE026B
:100E88000030FF3B7F087E04031D402F0034FC34F4
:100E98006034DA34F2346634B634BE34E034FE34C6
:100EA800F6348631F22687318431DA248731582F97
:100EB8008231402AFF34FF34FF34FF341634EE34D5
:080EC800DD34BB3477348034C3
:020000040001F9
:0A000E00EC1FFF37BF3FFE2FFE3F3F
:00000001FF
