:020000040000FA
:0404000082318D2A8E
:100408007E148231EC3020009D0082309C002E004A
:100418008C120130F7007708FD0720008E017D0857
:100428000339F700F801F735F80D0630770784002F
:100438008430783D850000088C008231A722823103
:100448007C08031D282A292A322A7D0803392A3ED6
:1004580086008701010820008E00842A0A307C0665
:10046800031D372A382A772AF33084008330850021
:100478000008F70077082000AA000A30F0000030D2
:10048800F1007C081F3E860087010108F700F8018B
:100498007708F2007808F30083317F2382317108EE
:1004A800850070088400F33084078330853D000898
:1004B800F90079082000AB003008F33E840083304F
:1004C8000318013E85000008F7007708AC003108E2
:1004D800F33E840083300318013E85000008F700CE
:1004E8007708AD00292A7C08F33E8400833003187E
:1004F800013E85000008F70077082000AA00412A7D
:100508007D0803392A3E8600870101088E007E1087
:10051800090082318F2A84311B248231B200843150
:100528001C248231B300FA01FB01FC01FD012030DB
:1005380084000030850012308431152482317E1009
:1005480020008331FD2B0F3020008D000D18AD2ABF
:10055800AE2AB32A0730F0007008FC00212B8D1852
:10056800B62AB72ABC2A0830F0007008FC00212BF4
:100578000D19BF2AC02AC52A0930F0007008FC00EE
:10058800212B8D19C82AC92ACB2AFC01212B02301C
:1005980032063304031DD12AD22AF32A07308D00EC
:1005A8000D18D72AD82ADC2A0230F0007008FC007F
:1005B8008D18DF2AE02AE42A0430F0007008FC00D5
:1005C8000D19E72AE82AEC2A0630F0007008FC002A
:1005D8003208013EB2000030333DB300212B033016
:1005E80032063304031DF92AFA2A0B2B0B308D002F
:1005F8000D18FF2A002B022BFC01FC0A8D18052B75
:10060800062BEC2A0330F0007008FC00EC2A0430BA
:1006180032063304031D112B122B212B0D308D00B4
:100628000D18172B182B1C2B0530F0007008FC0038
:100638000230B2000030B300212B2E082F0403191A
:10064800262B272B2D2B2E08FF3EAE00FF302F3DEB
:10065800AF007C080319312B322B752B7A087B04E9
:100668000319372B382B3F2B7A08013EFA0000304C
:100678007B3DFB00672B7A087B04031D442B452B2D
:10068800672B01302F025E3003192E02031C4D2BFD
:100698004E2B502BB001B00A3008031D542B552B9C
:1006A800672B7C081F3E860087010108013EF00089
:1006B8007C081F3E86008701700881009030AE00DC
:1006C8000130AF00382B00307B02C93003197A02A1
:1006D800031C6F2B702B732BB101B10A7E2BB10158
:1006E8007E2B7A087B0403197A2B7B2B7D2BFA014E
:1006F800FB01B0010800F601F31F832B842B8B2B21
:10070800F209F309F20A0319F30AF601F60AF11FCE
:100718008E2B8F2B942BF009F109F00A0319F10A9B
:10072800700871040319992B9A2BC32BF501F50A4C
:10073800A62B0130F035F10D890B9E2B0130F4000A
:100748007408F507F11FA92BAA2B9D2B71087302BA
:10075800031DB02B70087202031CB32BB42BB82BEB
:100768007008F2027108F33B0130F136F00C890B86
:10077800B92B0130F502031DC22BC32BAA2B760817
:100788000319C72BC82BCD2BF209F309F20A031959
:10079800F30A7308F1007208F00008008B170B13B6
:1007A8000B142E009616D03020009E0040309F007B
:1007B800EC309D0082309C002E008C1208003E0018
:1007C800B8012000960191013E00C3012000970165
:1007D80092013E00CE012000980193010800FC34EC
:1007E8006034DA34F2346634B634BE34E034FE347D
:1007F800F63484310E24833184311D248331002C56
:1008080082318D2AEE340034DD340034BB340034B8
:10081800773400348331E32384318331D223843124
:100828000800640080010131890B162C0034023461
:040838000034080080
:020000040001F9
:0A000E00EC1FFF37BF3FFE2FFE3F3F
:00000001FF
