:020000040000FA
:040400008231F22A29
:100408007E148231EC3020009D0082309C002E004A
:100418008C1201302000AA070030AB3D8E0103305A
:100428002A05F40000302B05F50074087504031D37
:100438001E2A1F2A232A0130AC070030AD3D0330A5
:100448002A05F40000302B05F500F435F50DC2300F
:10045800740784008330753D850000088C002A08E5
:1004680003390907203E8600870101088E003230D3
:100478002C062D04031D412A422AF02AAC01AD01A5
:1004880033082906031D4A2A32082806031D4D2A67
:100498004E2A522AA801A901FB01FC0104303006AA
:1004A8003104031D582A592A7E2A7B35A03E86002E
:1004B8008701403FA000413FA1007B35A23E860056
:1004C8008701403FA200413FA3007B35A43E860040
:1004D8008701403FA400413FA5007B35A63E86002A
:1004E8008701403FA600413FA7000430FB070030CA
:1004F800FC3DEB2A30033104031D832A842AEB2AAE
:100508002908FC002808FB00F901FA012000280846
:100518007907F40029087A3DF5002E08FF3EF60019
:10052800FF302F3DF70075087702031D9D2A7408D8
:1005380076020318A02AA12AC32A7908F4000130F8
:10054800F435890BA42AA0307407F5007B357507AC
:10055800F600FE30F7007708F0002E0883316A2392
:1005680082317607F8007808860087017935203EC1
:1005780084008501403F803F413F813FDA2A790866
:10058800F4000130F435890BC62AA0307407F50051
:100598007B357507F6007608860087017935203E99
:1005A80084008501403F803F413F813F0130F9078A
:1005B8000030FA3D7A08803AF40080307402031D56
:1005C800E72A04307902031CEA2AEB2A8A2A013036
:1005D8002000A8070030A93D7E1009008231F42AC6
:1005E800D2308400833085002E30860000308700AA
:1005F80006308331D82382311A3084008330850055
:10060800A03086000030870050308331D8238231F3
:10061800FB01FC0120308400003085000E3083315E
:10062800DE2382317E1020008331B92BFC34003464
:1006380060340034DA340034F23400346634003480
:10064800B6340034BE340034E0340034FE340034B0
:10065800F6340034003400340034003400340034FC
:1006680000340034003400340034003400340034E2
:1006780000340034003400340034003400340034D2
:1006880000340034003400340034003400340034C2
:1006980000340034003400340034003400340034B2
:1006A80000340034003400340034003400340034A2
:1006B8000034003400340034003400340034003492
:1006C800003400340034003400340034F300F20104
:1006D800731C6F2B702B742B7008F1007108F207D4
:1006E8000310F00D0310F30C7308031D7C2B7D2BF6
:1006F8006C2B72080800FC34003460340034DA349F
:100708000034F234003466340034B6340034BE3475
:100718000034E0340034FE340034F63400348B17EF
:100728000B130B142E009616D03020009E0040307C
:100738009F00EC309D0082309C002E008C12080037
:100748003E00B8012000960191013E00CE01200034
:100758009801930108008331A423833183319323C3
:1007680083318331CA23833108008331AF23833136
:100778008331E6238331BC2B8231F22AEE340034F4
:10078800DD340034BB340034773400342000AC014D
:10079800AD01A801A901FB01FC0108000A340034DD
:1007A800013400340A340034FE0012001E00FE0B2F
:1007B800D92B0034640080010131890BDF2B003410
:0607C80032340034080089
:020000040001F9
:0A000E00EC1FFF37BF3FFE2FFE3F3F
:00000001FF
