:020000040000FA
:040400008231332AE8
:100408007E148231EC3020009D0082309C002E004A
:100418008C120130FC007C082000A5078E012508FD
:100428000339453E840085300318013E85000008E5
:100438008C0025080339273E8600870101088E00B5
:1004480025080339031D292A2A2A312A0130FC00EC
:100458007C08A6078231602282317E100900823131
:10046800352A0D30840084308500703086002130B4
:1004780087000030FF0080308531162582318531B4
:1004880049258231FD0040308400853085002730C1
:100498008600003087000030FF00053085311625C2
:1004A8008231A001A101A201A301A401A501A60115
:1004B8007E1020008531372D0430200031060319C5
:1004C800662A672A0C2C26083206031D6C2A6D2A18
:1004D8000C2CA601B11C712A722A562B311C752AC4
:1004E800762AFB2A70308600213087000108F00048
:1004F8007008A7007030860021308700413101085C
:10050800F0007008A8007030860021308700423162
:100518000108F0007008A9007030860021308700BB
:1005280043310108F0007008AA00F901BA2A7908D5
:10053800F000F1017430F2002130F3007008720706
:1005480086007108733D87000108F4007908703E41
:10055800F500F6012130F63D75088600760887001B
:10056800740881000130F0007008F9077D087902ED
:10057800031CBF2AC02A9B2A7D08F000F1016F30B6
:10058800F2002130F3007008720786007108733D8D
:10059800870081017D08F000F1016E30F200213002
:1005A800F3007008720786007108733D87008101A7
:1005B8007D08F000F1016D30F2002130F300700881
:1005C800720786007108733D870081017D08F0007D
:1005D800F1016C30F2002130F300700872078600D8
:1005E8007108733D870081010430FD02072C7030CB
:1005F8008600213087000108F0007008A7007030DD
:1006080086002130870041310108F0007008A800F9
:10061800703086002130870042310108F0007008F0
:10062800A900703086002130870043310108F000AE
:100638007008AA00FA013F2B7A08F000F101713026
:10064800F2002130F3007008720786007108733DCC
:1006580087000108F4007A08703EF500F6012130A1
:10066800F63D750886007608870074088100013019
:10067800F0007008FA077D087A02031C442B452B0A
:10068800202B7D08F000F1016F30F2002130F300DB
:100698007008720786007108733D87008101013078
:1006A800FD02072C23082B06031D5B2B5C2B5E2BFE
:1006B800A301A201311C612B622BA42B2208703EDE
:1006C800860087012130873D0108F0007008A700E7
:1006D8002208F000F1017130F2002130F3007008B7
:1006E800720786007108733D87000108F4007408DA
:1006F800A8002208F000F1017230F2002130F30066
:100708007008720786007108733D87000108F400BD
:100718007408A9002208F000F1017330F2002130BA
:10072800F3007008720786007108733D870001089E
:10073800F4007408AA000430F0007008A207072C1F
:100748002308F0007008A200FB0123087B07F000D3
:10075800F101F10D2408FF3EF200FF3003180030CC
:10076800F3007308803AF4007108803A7402031D9C
:10077800BF2B700872020318C22BC32BE52B200075
:100788002408F000F1017B08F200F3012208703E12
:10079800F400F5012130F53D72087407F60073087E
:1007A800753DF7007008760286007108773B870070
:1007B8000108F8007B08273E860087017808810039
:1007C800FD2B7B08F000F10120002208703EF200AA
:1007D800F3012130F33D7008720786007108733DFC
:1007E80087000108F4007B08273E8600870174080B
:1007F80081000130F0007008FB0704307B02031C05
:10080800062C072CA92B0130F00070082000A30744
:1008180008001C34FC34EE34FC341D34FC34EE3453
:10082800FC341D34FD34EE34FC341D34FD34EF3417
:10083800FC341D34FD34EF34FD34B6349E34B63404
:100848000034DA34FC34DA34FC34DA34FC34DA34A4
:10085800FC34FC34F7346034E034FC34F73460346E
:10086800E0340234023402340234003400340034F8
:1008780000340034003400340034003400340034D0
:1008880000340034003400340034003400340034C0
:1008980000340034003400340034003400340034B0
:1008A80000340034003400340034003400340034A0
:1008B8000034003400340034003400340034003490
:1008C8000034003400340034003400340034003480
:1008D8000034003400340034003400340034003470
:1008E8000034003400340034003400340034003460
:1008F8000034003400340034003400340034003450
:10090800003400340034003400340034003400343F
:10091800003432302000AE002E08B200AF012F089C
:100928002D3E840085300318013E85000008AE0086
:100938002E08A0008431E524843101302000AE0067
:100948002E08AF070A302F02031CAB2CAC2C932CBB
:10095800B101A601A301A2017D08AE002E08A400E2
:1009680008002000AE01AF017030AC002130AD00AE
:100978002E082C0786002F082D3D870081010130A5
:10098800AE070030AF3D00302F02803003192E0231
:10099800031CCF2CD02CB82CFD0108000F302000F0
:1009A800B0003008B2000330B0003008B100A60132
:1009B8007D08031DE02CE12CDC2C8431B524843126
:1009C80008007D08703E2000AC00AD012130AD3D2F
:1009D8002C0886002D088700200881000130AC0013
:1009E8002C08FD07A00108008B170B130B142E0011
:1009F8009616D03020009E0040309F00EC309D00BD
:100A080082309C002E008C12080085312225853109
:100A18008431F82485318431D224853184318D2480
:100A280085310800FE0012001E000130FE02003071
:100A3800FF3B7F087E04031D172D00343E00B801DC
:100A48002000960191013E00CE01200098019301FB
:100A58000800FC346034DA34F2346634B634BE3418
:100A6800E034FE34F63485310925853185314A254F
:100A780085313A2D8231332AFF34FF34FF34FF3475
:0E0A88000D34EE34DD34BB34773434340800E2
:020000040001F9
:0A000E00EC1FFF37BF3FFE2FFE3F3F
:00000001FF
