:020000040000FA
:040400008231F82A23
:100408007E148231EC3020009D0082309C002E004A
:100418008C120130F0007008FC0720008E017C0867
:100428000339031D182A192A1D2A0130F000700803
:10043800AC077C080339393E840084300318013E38
:10044800850000088C007C080339203E860087015F
:1004580001088E002A03031D322A332AF62A2C08A3
:100468002B06031D382A392AF62AAC017B087D069B
:10047800031D3F2A402A422AFB01FA0104302506BF
:10048800031D472A482A8A2A7A08703E860087016F
:100498002130873D0108F0007008A0007A08F000BC
:1004A800F1017130F2002130F30070087207860004
:1004B8007108733D87000108F4007408A1007A08E8
:1004C800F000F1017230F2002130F3007008720779
:1004D80086007108733D87000108F4007408A200C3
:1004E8007A08F000F1017330F2002130F30070084F
:1004F800720786007108733D87000108F4007408CC
:10050800A3000430F0007008FA07F22A2503031D3F
:100518008E2A8F2AF22A7B08F0007008FA00F90167
:100528007B087907F000F101F10D20002408FF3E57
:10053800F200FF3003180030F3007308803AF4002B
:100548007108803A7402031DAB2A700872020318FE
:10055800AE2AAF2AD12A20002408F000F101790838
:10056800F200F3017A08703EF400F5012130F53D00
:1005780072087407F6007308753DF7007008760274
:1005880086007108773B87000108F8007908203E4B
:100598008600870178088100E82A7908F000F101CF
:1005A8007A08703EF200F3012130F33D70087207BB
:1005B80086007108733D87000108F4007908203E21
:1005C80086008701740881000130F0007008F9077F
:1005D80004307902031CF12AF22A942A0130F0002F
:1005E8007008FB077E1009008231FA2A2230840045
:1005F8008330850070308600213087000030FF008E
:10060800803084310224823184313D248231FD00DE
:100618003330840084308500203086000030870025
:100628000030FF000630843102248231FA01FB01D8
:10063800FC01AC017E1020008431232C1C34FC34D6
:10064800EE34FC3400340034003400341034003408
:1006580000340034103410340034003410341034B2
:100668001034003410341034103410341034103472
:1006780010343034103410341034703410341034D2
:100688001034F034103410349034F0341034903482
:100698009034F034903490349034F034943490346E
:1006A8009034F0349C3490349034F03480340034F6
:1006B8000034003480348034003400348034803492
:1006C8008034003480348034803480348034803402
:1006D8008034C034803480348034E03480348034D2
:1006E8008034F034803480349034F0348034903462
:1006F8009034F034903490349034F034983490340A
:100708009034F0349C3490349034F0340034003415
:1007180000340034B6349E34B6340034DA34FC3451
:10072800DA34FC34FC34F7346034B734023402343D
:1007380002340234003400340034003432302000F3
:10074800A6002608AB000A30A6002608FD00A50171
:10075800A50A0A30A6002608A400A9012908193EFE
:10076800840084300318013E85000008A60029088B
:10077800703EA700A8012130A83D27088600280858
:100788008700260881000130A6002608A9070A303C
:100798002902031CD02BD12BB22B84312C2483317A
:1007A80008008B170B130B142E009616D030200060
:1007B8009E0040309F00EC309D0082309C002E004F
:1007C8008C1208000A302000A6002608AB008431ED
:1007D8002C2483317B087D06031DF32BF42BEE2B91
:1007E800080084310E2483318331D523833183314A
:1007F800E62383318331A22383310800FE001200EF
:100808001E000130FE020030FF3B7F087E04031DFE
:10081800032C00343E00B8012000960191013E00EF
:10082800CE012000980193010800FC346034DA34CA
:10083800F2346634B634BE34E034FE34F6348331F0
:10084800F523843184313E248431262C8231F82AE0
:100858002000AA01AA0AAC01FB01FA010800FF3432
:10086800FF34FF34FF3480340434EE34DD34BB34D9
:0608780077342034080073
:020000040001F9
:0A000E00EC1FFF37BF3FFE2FFE3F3F
:00000001FF
