:020000040000FA
:0404000083312C2BED
:100408007E148231EC3020009D0082309C002E004A
:100418008C120130FC070030FD3D20008E010330B6
:100428007C05F00000307D05F10070087104031DA3
:100438001E2A1F2A232A0130BC070030BD3D033085
:100448007C05F00000307D05F100F035F10DA3309A
:10045800700784008430713D850000088C007C089A
:1004680003390907203E8600870101088E003803FA
:100478003904031D402A412A2A2B3B083D06031D47
:10048800472A3A083C06031D4A2A4B2A2A2BBC0154
:10049800BD012D087B06031D532A2C087A06031D6F
:1004A800562A572A5B2AFA01FB01F801F9010430A0
:1004B8002A062B04031D612A622AB72A7908F1004B
:1004C8007808F000F035F10D7030F2002130F300BB
:1004D8007008720786007108733D8700403FA000CE
:1004E800413FA1007908F1007808F000F035F10DDE
:1004F8007230F2002130F30070087207860071082C
:10050800733D8700403FA200413FA3007908F100F6
:100518007808F000F035F10D7430F2002130F30066
:100528007008720786007108733D8700403FA40079
:10053800413FA5007908F1007808F000F035F10D89
:100548007630F2002130F3007008720786007108D7
:10055800733D8700403FA600413FA7000430F807DD
:100568000030F93D262B2A032B04031DBC2ABD2A83
:10057800262B7B08F9007A08F800F601F7017A08BB
:100588007607F0007B08773DF10020002808FF3E41
:10059800F200FF30293DF30071087302031DD62ACB
:1005A800700872020318D92ADA2AFB2A2808760268
:1005B800F0002908773BF10078087007F200790805
:1005C800713DF300F235F30D7030F4002130F50081
:1005D8007208740786007308753D87007635203EDB
:1005E80084008501403F803F413F813F152B7808BB
:1005F8007607F0007908773DF100F035F10D70309D
:10060800F2002130F3007008720786007108733D0C
:1006180087007635203E84008501403F803F413F7A
:10062800813F0130F6070030F73D7708803AF00047
:1006380080307002031D222B04307602031C252B08
:10064800262BC32A0130FA070030FB3D7E10090033
:1006580083312E2B5630840083308500703086001D
:10066800213087000030FF008030843177248331C7
:100678005C3084008430850020308600003087009C
:100688000030FF000E30843177248331F801F901FE
:10069800FA01FB01FC01FD01BC01BD017E10200037
:1006A80084319A2C1C340034FC340034EE34003489
:1006B800FC34003400340034003400340034003496
:1006C8000034003402340034003400340034003480
:1006D8000034003400340034023400340034003470
:1006E8000034003400340034003400340234003460
:1006F8000034003400340034003400340034003452
:10070800023400340234003400340034003400343D
:10071800003400340234003402340034003400342D
:10072800003400340234003402340034023400341B
:10073800003400340234003402340034023400340B
:1007480002340034003400340034003400340034FF
:1007580000340034B63400349E340034B6340034E7
:1007680000340034DA340034FC340034DA34003431
:10077800FC340034FC340034F63400346034003483
:10078800B634003402340034023400340234003405
:1007980002340034003400340034003400340034AF
:1007A8000034003432302000BA000030BB000A3078
:1007B800AC000030AD000130AA000030AB000A30B8
:1007C800A8000030A900B601B70120003708AF0023
:1007D8003608AE00AE35AF0D2330B0008430B1001E
:1007E8002E08300786002F08313D87003708B300F0
:1007F8003608B200B235B30D7030B4002130B50000
:100808003208340784003308353D8500403F803F77
:10081800413F813F0130B6070030B73D3708803A85
:10082800AE0080302E02031D1B2C0A303602031C3A
:100838001E2C1F2CE92B8431832483310800FC34BF
:10084800003460340034DA340034F234003466346E
:100858000034B6340034BE340034E0340034FE349E
:100868000034F634003414302000BA000030BB00E5
:1008780084318324843120002D087B06031D462CF7
:100888002C087A06031D492C4A2C3F2C08008B178C
:100898000B130B142E009616D03020009E0040300B
:1008A8009F00EC309D0082309C002E008C120800C6
:1008B800FF340034FF340034FF340034FF34003494
:1008C80040340034043400341034003484318F242C
:1008D800843184314B248431843137248431833109
:1008E800D62384310800FE0012001E000130FE02EB
:1008F8000030FF3B7F087E04031D782C0034013054
:100908002000B8000030B900BC01BD01FA01FB01AC
:10091800F801F90108003E00B80120009601910194
:100928003E00CE01200098019301080084316A241A
:1009380084318431AB2484319D2C83312C2BEE34CB
:100948000034DD340034BB3400347734003408001C
:020000040001F9
:0A000E00EC1FFF37BF3FFE2FFE3F3F
:00000001FF
