:020000040000FA
:0400000080314028E3
:100008007E148031EC3020009D0082309C002E0050
:100018008C120130FC007C082000AC078E012C08F3
:100028000339F03E840083300318013E8500000840
:100038008C002C0803392F3E8600870101088E00AA
:100048002C080339031D29282A2831280130FC00EF
:100058007C08AD07803175208031033020002C05E5
:10006800FC0002307C06031D3A283B283E288231DA
:100078001C2280317E10090080314228B330840070
:100088008230850070308600213087000030FF0004
:1000980080308331B62380318331F4238031FD00F1
:1000A800EA308400833085002F30860000308700D6
:1000B8000030FF0006308331B6238031A001A10152
:1000C800A201A301A401A501A601A701A801A901F4
:1000D800AA01AB01AC01AD01AE017E102000833155
:1000E800E12B20002D083A06031D7B287C281B2ABB
:1000F800AD01B31C802881286529331C84288528F4
:100108000A2970308600213087000108F000700845
:10011800AF00703086002130870041310108F000BF
:100128007008B00070308600213087004231010825
:10013800F0007008B100703086002130870043312C
:100148000108F0007008B200F901C9287908F00028
:10015800F1017430F2002130F30070087207860054
:100168007108733D87000108F4007908703EF500B6
:10017800F6012130F63D7508860076088700740878
:1001880081000130F0007008F9077D087902031C2E
:10019800CE28CF28AA287D08F000F1016F30F200A0
:1001A8002130F3007008720786007108733D8700DC
:1001B80081017D08F000F1016E30F2002130F3007A
:1001C8007008720786007108733D870081017D08F9
:1001D800F000F1016D30F2002130F3007008720771
:1001E80086007108733D870081017D08F000F101E8
:1001F8006C30F2002130F300700872078600710835
:10020800733D870081010430FD02162A7030860094
:10021800213087000108F0007008AF0070308600B8
:100228002130870041310108F0007008B0007030BB
:1002380086002130870042310108F0007008B100C3
:10024800703086002130870043310108F0007008C3
:10025800B200FA014E297A08F000F1017130F2007B
:100268002130F3007008720786007108733D87001B
:100278000108F4007A08703EF500F6012130F63DD9
:100288007508860076088700740881000130F00040
:100298007008FA077D087A02031C532954292F296C
:1002A8007D08F000F1016F30F2002130F300700892
:1002B800720786007108733D870081010130FD02D5
:1002C800162A2A083406031D6A296B296D29AA01F2
:1002D800A901331C70297129B3292908703E8600A9
:1002E80087012130873D0108F0007008AF00290818
:1002F800F000F1017130F2002130F300700872074C
:1003080086007108733D87000108F4007408B00086
:100318002908F000F1017230F2002130F300700872
:10032800720786007108733D87000108F40074089D
:10033800B1002908F000F1017330F2002130F30018
:100348007008720786007108733D87000108F40081
:100358007408B2000430F0007008A907162A2A08A9
:10036800F0007008A900FB012A087B07F000F101E2
:10037800F10D2B08FF3EF200FF3003180030F300A8
:100388007308803AF4007108803A7402031DCE297C
:10039800700872020318D129D229F42920002B08E9
:1003A800F000F1017B08F200F3012908703EF40027
:1003B800F5012130F53D72087407F6007308753DA4
:1003C800F7007008760286007108773B87000108FD
:1003D800F8007B082F3E86008701780881000C2AE8
:1003E8007B08F000F10120002908703EF200F301BB
:1003F8002130F33D7008720786007108733D87004D
:100408000108F4007B082F3E8600870174088100EC
:100418000130F0007008FB0704307B02031C152A2A
:10042800162AB8290130F00070082000AA07080031
:100438002000A401A5010F308D000F300D0603190F
:10044800262A272A492A0D182A2A2B2A302A073031
:10045800F0007008AE00902A8D18332A342A392A01
:100468000830F0007008AE00902A0D193C2A3D2A89
:10047800422A0930F0007008AE00902A8D19452AEA
:10048800462A482AAE01902A902A07308D00073064
:100498000D060319502A512A6C2A0D18542A552A78
:1004A8005A2A0230F0007008AE00902A8D185D2A92
:1004B8005E2A632A0430F0007008AE00902A0D19F5
:1004C800662A672A482A0630F0007008AE00902A8B
:1004D80003308D0003300D060319732A742A802A0D
:1004E8000D18772A782A7B2AAE01AE0A902A0330A3
:1004F800F0007008AE00902A01308D000D0303193A
:10050800862A872A8C2A0530F0007008AE00902AC7
:100518000F30F0007008AE000130F0000030F1003C
:100528002E0A982AF035F10D890B962A7008A40036
:100538007108A5002708F1002608F000F009F10964
:1005480024087005F20025087105F3007208A2045A
:100558007308A3042508A7002408A60008001C3473
:10056800FC34EE34FC3400340034003400341034ED
:1005780000340034003410341034003400341034A3
:100588001034103400341034103410341034103453
:1005980010341034303410341034103470341034B3
:1005A80010341034F034103410349034F0341034E3
:1005B80090349034F034903490349034F03494344F
:1005C80090349034F0349C3490349034F034803447
:1005D80000340034003480348034003400348034F3
:1005E80080348034003480348034803480348034E3
:1005F80080348034C034803480348034E0348034B3
:1006080080348034F034803480349034F034803452
:1006180090349034F034903490349034F0349834EA
:1006280090349034F0349C3490349034F034003466
:10063800003400340034B6349E34B6340034DA342E
:10064800FC34DA34FC34FC34F7346034B734023424
:100658000234023402340034003400340034200000
:100668002308B9002208B800B835B90D380839048C
:1006780003193F2B402B592B2E08CD3E8400833085
:100688000318013E85000008B8003808AF002E089E
:10069800CD3E840083300318013E85000008833175
:1006A800922383312000A201A30108002000B70192
:1006B800B8017030B5002130B6003708350786001C
:1006C8003808363D870081010130B7070030B83D52
:1006D80000303802803003193702031C742B752B45
:1006E8005D2BFD0108000A302000B9003908BA0066
:1006F8000330B9003908B3007D08031D842B852B0E
:10070800802B83315A23833132302000B9003908D5
:10071800BA000230B9003908B30008002000B70059
:100728007D08703EB500B6012130B63D350886001B
:1007380036088700370881000130B5003508FD0705
:1007480008008B170B130B142E009616D0302000C0
:100758009E0040309F00EC309D0082309C002E00AF
:100768008C120800FE0012001E000130FE0200304C
:10077800FF3B7F087E04031DB72B00343E00B80101
:100788002000960191013E00CE01200098019301BE
:100798000800FC346034DA34F2346634B634BE34DB
:1007A800E034FE34F6348331C22383318331A52308
:1007B800833183317723833108008331D723833111
:1007C800833133238331E42B80314028FF34FF34D5
:1007D800FF34FF3401342034EE34DD34BB34773455
:0207E80080345B
:020000040001F9
:0A000E00EC1FFF37BF3FFE2FFE3F3F
:00000001FF
